:10000000DCC7189518951895189518951895189592
:100010001895B7C7189518951895189518951895A7
:100020001895189518950000B00210006A00AB02F0
:100030008F02DF02F3026701B9016702DA010402ED
:100040007B00CA003401A000E4000D010100AC04F3
:100050000B00F50315043304BF04520463047A044F
:100060008C049E04AE04D0040001F805F205019A48
:100070000501D60501BE0505FE0508050608300682
:10008000083E06083006083E0610F205084306083A
:100090004906083E0608570620490608F205185783
:1000A00006085D0610300608F205086406290B06EE
:1000B000012006012C06FB007800A0001C115B004B
:1000C00018010000ECD7C801D9010091A000E6E2B8
:1000D000F0E09AC700E00A930A930A9370E060E0A8
:1000E00050E040E030E020E08C012FD331E020E010
:1000F00011E00AE088C200E00A930A930A9370E0D4
:1001000060E852E047E033E021E08C011ED347E095
:1001100050E024E28C01A0D20091C5001091C400EF
:10012000011731E020E038F41DE001E071D201E078
:100130000093080169C21EE001E06AD200E0F8CF36
:1001400070E062E040E050E020E030E08C01055DCE
:100150001F4F90D270E061E040E050E09C01255DCF
:100160003F4F04EA10E086D200E00A930A930A9314
:1001700070E162E052E047E033E024E08C01E5D238
:1001800047E050E024E28C0167D231E020E01BE040
:1001900001E039C28C0166D20093090100E00A93A4
:1001A0000A930A9370E061E852E047E033E022E00E
:1001B0008C01CBD247E050E024E28C014DD230914B
:1001C000090120E01CE0E4CF70E062E040E050E094
:1001D00020E030E08C01055D1F4F4CD270E061E003
:1001E00040E050E09C01255D3F4F04EA10E042D220
:1001F00000E00A930A930A9370E061E852E047E056
:1002000033E022E08C01A1D247E050E024E28C01EF
:1002100023D231E020E01FE0BBCF70E062E040E09D
:1002200050E020E030E08C01055D1F4F23D270E0EC
:1002300061E040E050E09C01255D3F4F04EC10E0A0
:1002400019D200E00A930A930A9370E162E052E047
:1002500047E033E024E08C0178D247E050E024E22C
:100260008C01FAD131E0ADCF009108010023A9F053
:1002700070E062E040E050E020E030E08C01055D9D
:100280001F4FF8D170E061E040E050E09C01255D37
:100290003F4F04EC10E0EED104C08C01E3D1009399
:1002A000090100E00A930A930A9378E062E052E0C1
:1002B00047E033E023E08C0148D247E050E024E2FD
:1002C0008C01CAD13091090120E015E061CF00E036
:1002D0000A930A930A9370E060E050E040E030E057
:1002E00020E08C0132D270E061E040E050E08B967B
:1002F0009C0104EE10E0BED170E062E040E050E00E
:1003000020E030E004EE10E0B5D170E060E044ECB5
:1003100050E024EA30E004EE10E0ACD10093050197
:10032000109105012091090101E02027122BC1F055
:100330007091C50062E040E050E020E030E004EC65
:1003400010E098D170E063E044EC50E024EA30E043
:1003500004EE10E08FD131E021E011E006E004C0AE
:1003600031E020E011E004E053D101E00093090105
:100370004BC17091AE0064E040E050E020E030E01E
:1003800004EA10E077D104EA10E01A930A9300E03F
:100390000A9370E161E852E147E233E027E08C0123
:1003A000D4D147E050E024E08C0156D131E021E087
:1003B00018E0EECE70E062E040E050E020E030E097
:1003C00004EE10E057D104EE10E01A930A9300E017
:1003D0000A9378E061E852E147E233E026E08C01DD
:1003E000B4D147E050E024E08C0136D131E021E087
:1003F00019E001E00DD10091C40007700093A30043
:1004000000E00093060100C11091A300012F0A959E
:100410000093A3001123A9F010910601112389F480
:1004200010E0F801E056FF4F75A164E040E050E0B5
:1004300020E030E004EE10E01DD131E021E019E0D1
:1004400030C0102F0A950093A300209106011123BC
:1004500049F0222339F010E0F801E056FF4F75A172
:1004600065E0E4CF10E0E0EAF0E0E00FF11F75A1F5
:10047000222361F464E040E050E020E030E004EE4C
:1004800010E0F8D031E021E017E00BC065E040E07B
:1004900050E020E030E004EC10E0ECD031E021E06E
:1004A00012E001E0B5D004EE10E01A930A9300E0E8
:1004B0000A9370E161E852E147E233E027E08C0102
:1004C00044D147E050E024E08C01C6D09DC070E0EC
:1004D00062E040E050E020E030E004EC10E0CAD000
:1004E00004EC10E01A930A9300E00A9370E061E8CC
:1004F00052E147E233E025E08C0127D147E050E0AC
:1005000024E08C01A9D031E021E019E001E080D0A5
:100510000091C50007700093A30001E072CF00E0D6
:100520000A930A930A9370E060E050E040E030E004
:1005300020E08C010AD100910701002331E019F479
:1005400023E010E05FC020E010E000E061D000E0B8
:100550000093070159C09D018C012FD166D054C072
:1005600001E0401621F431E020E010E011CE03E07C
:10057000401689F400E00A930A930A9370E060E061
:1005800050E040E030E020E08C01DFD031E020E0BE
:1005900011E003E038C0442019F002E0401619F7DA
:1005A00000E00A930A930A9370E060E050E040E0B4
:1005B00030E020E08C01C9D031E020E022C000E032
:1005C0000A930A930A9370E060E050E040E030E064
:1005D00020E08C01BAD031E024E01091A10001E0CC
:1005E00017D001E0B5CF00E00A930A930A9370E0B8
:1005F00060E050E040E030E020E08C01A6D031E047
:1006000024E011E000E004D000910401E4E052C5D0
:100610000093A0001093A100332321F402E0009383
:1006200004010895209304010895013089F00230F7
:1006300011F0002319F40091A10008C0033029F43F
:1006400003E00093A00004E004C001E00093A000D8
:1006500000E0009304010895025B1F4FF80120831E
:1006600041830895F80103A9057511F400E0089588
:1006700001E0089512D5D80110E000E01BC06230FF
:1006800021F0643011F06530A1F4202E33240D01E7
:10069000020C131CF00180818295807F90819295DD
:1006A0009F70890F808320802094208200800726FD
:1006B000008203950032B0F5662311F0633029F50E
:1006C000002E11241901200C311CE02FF0E00D0147
:1006D0000E0E1F1EF0018081F1019081891719F41F
:1006E0004424439401C04424E02FF0E0CA018E0F5B
:1006F0009F1FFC0150804524140DF1012080FC0156
:1007000030802324F0012082D4CF613009F0B7CFAC
:10071000002E1124F901E00DF11D2080FD01E00DF6
:10072000F11DF1CF643021F4FD0101850A7A05C085
:10073000653021F4FD01018501650187103210F05B
:1007400001E001C000E0E6E0B3C4A9D4D801842FE1
:100750004C810D811E81FD0120A73C938183528332
:1007600063837483458320E009C0F801E20FF31F1F
:100770004081FD01E20FF31F4683239530E0E82F0F
:10078000F0E037972E173F0784F3282F22508D0172
:100790000F5F1F4F76D190E08D01080F191F209138
:1007A0001901F8013197208320911801F801208365
:1007B0008395FD0181A7E7E07DC46FD42297D8011E
:1007C0002901EAE0F1E0028113814016510641F06F
:1007D000008111810F5F1F4F00831183428253827A
:1007E00000910E01ECE4F0E00FC400E0EAE0F1E07B
:1007F00000830183FD0100A50F3F29F401E0009370
:100800000E0103E0DFC000910F0110A5011719F0E0
:1008100000A5002329F401E000930E0100E0D2C0FE
:1008200002E000930E0101E0CDC05A924A9272E0BC
:1008300064E250E041E431E121E001E111E059D10D
:1008400008831983AAE0B1E0ED91FC91B99710F00B
:100850000BE0E7CF0881003219F7009110010F3F3C
:10086000F9F603E0DECF5A924A9270E060E050E081
:1008700044E631E224E08D01065D1F4F3AD1088342
:1008800019830881083439F4EAE0F1E00281138128
:100890004016510629F662E055E043E09D018E01C5
:1008A00094D0C1CF5A924A9270E060E050E044E6A2
:1008B00031E1FD0121A58D011CD10883198365E07B
:1008C00056E045E0EBCFCD01825B9F4F5A924A92B2
:1008D00070E060E050E044E631E2FC0120818D01EF
:1008E000065D1F4F06D10883198365E0FC01518125
:1008F00046E0D4CF01E00C935A924A9270E060E057
:1009000050E044E631E121E08D01F3D00883198302
:1009100067E059E047E0C2CF02E00C935A924A9256
:1009200070E060E050E044E631E121E08D01E1D08B
:100930000883198368E059E048E0B0CF00E0EAE0BE
:10094000F1E000830183FD0100A500930F0101E0A8
:1009500000930E0102E036C00AE063CF0881023046
:1009600061F45A924A9270E060E050E044E631E26D
:1009700021E09A968D01BDD0EFCF04E052CF5A927C
:100980004A9270E060E050E044E631E121E001E1AC
:1009900011E0AFD0088319836AE055E044E07ECFD0
:1009A0000FEF0093100100E010E0EAE0F1E00083B7
:1009B000018301E000930E0103E010930F011FEF8C
:1009C000FD0110A72296E6E073C369D3952F862F09
:1009D000EAE0F1E0A081B181999720F00BE000936B
:1009E0000E014BC0F8015181552319F440930E01BB
:1009F00044C04081403319F00081083511F404E00F
:100A0000EECFD9019A96FD0104A110E0F901E00FA3
:100A1000F11F01A500931B01FD0104A1200F311F4F
:100A2000F90100A500931A01FD0114A112509D01C6
:100A300002E052D010910E01153031F0143021F047
:100A4000183011F0173019F490930E0116C01330BE
:100A500021F4FD0111811131B9F3FD01108115302F
:100A600010F0002389F71081153028F4118111232B
:100A700011F4002349F780930E01E4E01BC300E06A
:100A80000895722F0024112440E001C043954717B8
:100A9000E0F461E00FC020E0322F212D220F20E092
:100AA000221F000C111C321721F025E030E802262D
:100AB0001326660F662351F350E0F801E40FF51F8B
:100AC0002081262341F321E0E7CF002D0093190177
:100AD000012C00921801089520E010E002C0239537
:100AE00013951017E0F3201711F000E0089501E0CE
:100AF0000895CFD2C801B22FA32F942E452E562E83
:100B0000872E6A847B84092D000F02B9E2E1F1E0AF
:100B1000008111816016710629F005810395058316
:100B200060827182B23008F4442400911401E8E636
:100B3000F0E06AC200E0009317012B2F8C01A1DFC7
:100B4000A13111F0A13269F412E000E0CBD000E055
:100B50000093160150B801B1082901B904EA06BF93
:100B6000BBC0A13311F0A13441F412E000E0BAD0CF
:100B700000E00093160104E4F2CFABC000E0009364
:100B800017012B2F8C017DDF1B2F9C0102E0A4DFBE
:100B9000002339F011E001E0A5D0A13229F404E9E5
:100BA000DECF12E000E09ED004E8D9CF06B7102FC8
:100BB00017FD12C000911701043060F000E00093AF
:100BC0001701A13111F0A13219F412EF00E083C036
:100BD00011E081C012E0FACF00E00093170111B1DB
:100BE000187F79C000E00093170104EC06BFF2CF34
:100BF00000E0009317010A2F04D16EC000E00093BB
:100C00001701192D0A2F78D0E5CF00E000931701C6
:100C100000931601F6CFA398AB9B02C013EFD6CF7B
:100C2000E2E1F1E0008111816016710671F213B307
:100C3000A49A03B3009500711F7E012B03BBC5CF9F
:100C400000E0C09901E00095017008BB12E000E0EF
:100C500049D0A39A9B9A40C011E000E043D09FCFB7
:100C600000E000931701E2E1F1E0048103950483C1
:100C7000442D3A2F2B2F8C014BD02EC000E0009337
:100C8000170104EAB3CF00E00093170112E02AD065
:100C900065CF00E000931701E2E1F1E004810395E4
:100CA0000483442D3A2F2B2F8C0164D015C000E013
:100CB000009317010093160198CF00E000931701ED
:100CC00001E000931601D4CF00E00093170104E87F
:100CD00006BF11E001E006D0E2E1F1E002811381FC
:100CE000ECE0E2C1002311F001E001C000E000935C
:100CF0001501109314010895013111F4110F04C06E
:100D0000013219F4110F139513B904E806BF0895C1
:100D1000C8D1F80160911601062E1124261720F083
:100D2000E60FF11D319708C0C0010197022F801B0B
:100D30009040FC01E85EFE4F008103B9261740F4A5
:100D4000822F90E00296861791055CF0442349F0CB
:100D5000313129F404E806BF12E000E008C004ECD9
:100D6000FACF3131B9F704E906BF11E001E0BADF8B
:100D7000E2E0A2C193D1D801822F932F442E00E04C
:100D800020911601821758F003B179DE13B120913A
:100D9000160130E0A20FB31F11971C930BC013B1C3
:100DA00030E021503040482F241B3040F901E65EEE
:100DB000FE4F1083013031F412E000E093DF04E8CD
:100DC00006BF1DC00091160110E0E82FF0E032963A
:100DD0000E171F0714F013E010C0081758F0442036
:100DE00049F4913229F404E906BF11E001E006C09C
:100DF00004E8FACF04EC06BF12E000E073DFE5E0A0
:100E000058C1013129F412E000E06CDF04EA06C0A9
:100E1000013231F412E000E065DF04E806BF089516
:100E20000133C1F3013419F418EB00E05BDF0895DE
:100E30006FD0A895ECE1F1E02081318103E211E06F
:100E4000BCDC00911F010023A9F701E000931F0102
:100E500087D0ECE1F1E000811181012B29F40091B0
:100E60001E0106D000931E0102E000931F01E1CF96
:100E70000050E1F10A9519F00A9559F140C002E0DD
:100E800010E0ECE1F1E00083118322E030E003E2C6
:100E900011E018D90093210100912101013011F4D2
:100EA00001E008950023E1F3033021F400E0009312
:100EB00022010895043011F0023091F7ECE1F1E0E5
:100EC00006810395068300912201043048F302E075
:100ED000089502E010E0ECE1F1E00083118300915D
:100EE00022010430E8F202E008BBFDCF01E0919A54
:100EF00022E030E0ECE1F1E020833183089500E06E
:100F000022E0ECE1F1E02083018305BB02BB089500
:100F1000789401E009BF04E003BF00E002BF0FE1E5
:100F200001BD01BD0FEF04BB01BB03E007BB01D056
:100F3000089500E000931E0100931F01009320011B
:100F400003E00093210102E310E0ECE1F1E0008313
:100F500011831093230110934B01109322010895E4
:100F6000ECE1F1E000811181012B39F00081118168
:100F70000150104000831183089501E00093200187
:100F800008950A925A934A931A930A931FB70091AD
:100F90001F01023039F0013029F400911E0140E0B8
:100FA00050E024D000E000931F011FBF0991199168
:100FB0004991599109901895B0C00FE90DBF00E013
:100FC0000EBFC0E8D0E07FD0002309F08CD030DF26
:100FD00011D0F2CFE199FECF08954F5F5F4F4EBB26
:100FE0005FBBF894E29AE19A0FBE08950FB6F2DF64
:100FF0000DBBF5CFE1CF7591659155914591159058
:1010000011FA259035900895F9DF041B10E003C014
:10101000F4DF041B150B20E030E005C0ECDF041BFF
:10102000150B260B370BB8F010FC17C04591059037
:10103000E00FF11F0417100540E02407340758F4AF
:1010400036F404910024F101E01BF0090994E00F4B
:10105000F11F25903590F101099411F4D6F7F1CFE5
:1010600031960EF0319650E060E070E045914B3FD4
:1010700048F089F34F3F29F04E3F11F0759165918B
:1010800055914591041B150B260B370B39F318F3BB
:10109000E7CF9A928A927A926A925A924A92BA9335
:1010A000AA939A938A930895998488847F806E8006
:1010B0005D804C80BB81AA8199818881F0E0EC0F32
:1010C000FD1FEF01089501E0089520E006D0E9F743
:1010D0000895259102D0E9F708952D93015010400D
:1010E000202F212B089588EB90E0FC0105911491AD
:1010F000FC013296A591B491FC013496259134916E
:10110000422F432B19F0F901E4DF01C0DEDF069620
:1011100010E0843C910748F30895FFCF000A0000D7
:1011200000000000000000000000000000000000BF
:1011300000000000000000000000000000000000AF
:10114000000000000000000000000000000000009F
:10115000000000000000000000000000000000008F
:10116000000000000000000000000000000000007F
:10117000000000000000000000000000000000006F
:101180000300000001010000000001000004000055
:041190000100010059
:00000001FF
:00000001FF
