:100000009BC71895189518951895189518951895D3
:10001000189576C7189518951895189518951895E8
:100020001895189518950000AA0210005C00A5020A
:100030008902D902ED025901B3016102D401FE0126
:100040006D00BC0026019200D600FF00010096045E
:100050000B00EB030B041D04A9043C044D046404D1
:10006000760488049804BA040101DF05810501C201
:100070000501A80505E50508EC05080406081506B0
:1000800008040608150610190608150608210608B2
:10009000150699F20501FA05010006FB7700A0009C
:1000A00092105B0017010000B7D7C801D901009179
:1000B000A000E6E2F0E067C700E00A930A930A9323
:1000C00070E060E050E040E030E020E08C0133D3AD
:1000D00031E020E011E00AE090C200E00A930A93C8
:1000E0000A9370E060E852E047E033E021E08C01E1
:1000F00022D347E050E024E28C01A4D20091C50055
:100100001091C400011731E020E038F41DE001E057
:1001100079D201E00093080171C21EE001E072D2C1
:1001200000E0F8CF70E062E040E050E020E030E036
:100130008C01055D1F4F94D270E061E040E050E01B
:100140009C01255D3F4F04EA10E08AD200E00A934B
:100150000A930A9370E162E052E047E033E024E062
:100160008C01E9D247E050E024E28C016BD231E00F
:1001700020E01BE001E041C28C016AD2009309013A
:1001800000E00A930A930A9370E061E852E047E0C6
:1001900033E022E08C01CFD247E050E024E28C0132
:1001A00051D23091090120E01CE0E4CF70E062E020
:1001B00040E050E020E030E08C01055D1F4F50D260
:1001C00070E061E040E050E09C01255D3F4F04EAB3
:1001D00010E046D200E00A930A930A9370E061E8C7
:1001E00052E047E033E022E08C01A5D247E050E046
:1001F00024E28C0127D231E020E01FE0BBCF70E089
:1002000062E040E050E020E030E08C01055D1F4FEF
:1002100027D270E061E040E050E09C01255D3F4F57
:1002200004EC10E01DD200E00A930A930A9370E1F7
:1002300062E052E047E033E024E08C017CD247E00A
:1002400050E024E28C01FED131E0ADCF00910801F5
:100250000023A9F070E062E040E050E020E030E0F0
:100260008C01055D1F4FFCD170E061E040E050E083
:100270009C01255D3F4F04EC10E0F2D104C08C01DD
:10028000E7D10093090100E00A930A930A9378E00A
:1002900062E052E047E033E023E08C014CD247E0DB
:1002A00050E024E28C01CED13091090120E015E02C
:1002B00061CF00E00A930A930A9370E060E050E097
:1002C00040E030E020E08C0136D270E061E040E0B8
:1002D00050E08B969C0104EE10E0C2D170E062E029
:1002E00040E050E020E030E004EE10E0B9D170E0F2
:1002F00060E044EC50E024EA30E004EE10E0B0D1DD
:1003000000930501109105012091090101E02027CA
:10031000122B01F17091C50062E040E050E020E056
:1003200030E004EC10E09CD170E063E044EC50E07D
:1003300024EA30E004EE10E093D131E021E011E056
:1003400006E060D100910901002349F401E007BBF8
:1003500008BB05C031E020E011E004E053D101E02A
:10036000009309014BC17091AE0064E040E050E0A1
:1003700020E030E004EA10E073D104EA10E01A93C0
:100380000A9300E00A9370E161E852E147E233E04A
:1003900027E08C01D0D147E050E024E08C0152D11D
:1003A00031E021E018E0E6CE70E062E040E050E0AD
:1003B00020E030E004EE10E053D104EE10E01A9398
:1003C0000A9300E00A9378E061E852E147E233E003
:1003D00026E08C01B0D147E050E024E08C0132D11E
:1003E00031E021E019E001E00DD10091C400077077
:1003F0000093A30000E00093060100C11091A30048
:10040000012F0A950093A3001123A9F01091060172
:10041000112389F410E0F801E056FF4F75A164E064
:1004200040E050E020E030E004EE10E019D131E08F
:1004300021E019E030C0102F0A950093A30020910D
:100440000601112349F0222339F010E0F801E056AB
:10045000FF4F75A165E0E4CF10E0E0EAF0E0E00FC7
:10046000F11F75A1222361F464E040E050E020E038
:1004700030E004EE10E0F4D031E021E017E00BC0F2
:1004800065E040E050E020E030E004EC10E0E8D02F
:1004900031E021E012E001E0B5D004EE10E01A9363
:1004A0000A9300E00A9370E161E852E147E233E029
:1004B00027E08C0140D147E050E024E08C01C2D01D
:1004C0009DC070E062E040E050E020E030E004ECED
:1004D00010E0C6D004EC10E01A930A9300E00A93EF
:1004E00070E061E852E147E233E025E08C0123D17E
:1004F00047E050E024E08C01A5D031E021E019E094
:1005000001E080D00091C50007700093A30001E0D6
:1005100072CF00E00A930A930A9370E060E050E023
:1005200040E030E020E08C0106D10091070100237B
:1005300031E019F423E010E05FC020E010E000E0BB
:1005400061D000E00093070159C09D018C012BD1BF
:1005500066D054C001E0401621F431E020E010E004
:1005600009CE03E0401689F400E00A930A930A9347
:1005700070E060E050E040E030E020E08C01DBD053
:1005800031E020E011E003E038C0442019F002E03F
:10059000401619F700E00A930A930A9370E060E0AE
:1005A00050E040E030E020E08C01C5D031E020E0B8
:1005B00022C000E00A930A930A9370E060E050E0E2
:1005C00040E030E020E08C01B6D031E024E0109132
:1005D000A10001E017D001E0B5CF00E00A930A9333
:1005E0000A9370E060E050E040E030E020E08C01F1
:1005F000A2D031E024E011E000E004D00091040139
:10060000E4E013C50093A0001093A100332321F46C
:1006100002E000930401089520930401089501303D
:1006200081F0023011F0002319F40091A10003C001
:10063000033021F403E00093A000089501E000934B
:10064000A0000895025B1F4FF801208341830895A5
:10065000F80103A9057511F400E0089501E008957B
:10066000D9D4D80110E000E01BC0623021F0643022
:1006700011F06530A1F4202E33240D01020C131C5F
:10068000F00180818295807F908192959F70890F83
:10069000808320802094208200800726008203959A
:1006A0000032B0F5662311F0633029F5002E1124D5
:1006B0001901200C311CE02FF0E00D010E0E1F1E61
:1006C000F0018081F1019081891719F44424439449
:1006D00001C04424E02FF0E0CA018E0F9F1FFC01EF
:1006E00050804524140DF1012080FC01308023242A
:1006F000F0012082D4CF613009F0B7CF002E112451
:10070000F901E00DF11D2080FD01E00DF11DF1CF9B
:10071000643021F4FD0101850A7A05C0653021F4B9
:10072000FD01018501650187103210F001E001C073
:1007300000E0E6E078C470D4D801842F4C810D81AC
:100740001E81FD0120A73C938183528363837483C0
:10075000458320E009C0F801E20FF31F4081FD014D
:10076000E20FF31F4683239530E0E82FF0E0379740
:100770002E173F0784F3282F22508D010F5F1F4F44
:1007800067D190E08D01080F191F20911801F80121
:100790003197208320911701F80120838395FD0173
:1007A00081A7E7E042C436D42297D8012901EAE0C4
:1007B000F1E0028113814016510641F00081118160
:1007C0000F5F1F4F008311834282538200910E01FD
:1007D000ECE4F0E0D8C300E0EAE0F1E0008301835C
:1007E000FD0100A50F3F29F401E000930E0103E095
:1007F000D0C000910F0110A5011719F000A500232A
:1008000029F401E000930E0100E0C3C002E0009370
:100810000E0101E0BEC05A924A9272E064E250E0DA
:1008200041E431E121E000E111E04AD1088319837C
:100830000881003259F703E0EACF5A924A9270E0F9
:1008400060E050E044E631E224E08D01065D1F4F98
:1008500037D1088319830881083439F4EAE0F1E0DC
:10086000028113814016510689F662E055E043E0AB
:100870009D018E0191D0CDCF5A924A9270E060E0F6
:1008800050E044E631E1FD0121A58D0119D1088335
:10089000198365E056E045E0EBCFCD01825B9F4FC9
:1008A0005A924A9270E060E050E044E631E2FC0186
:1008B00020818D01065D1F4F03D10883198365E0F8
:1008C000FC01518146E0D4CF01E00C935A924A9248
:1008D00070E060E050E044E631E121E08D01F0D0CD
:1008E0000883198367E059E047E0C2CF02E00C9328
:1008F0005A924A9270E060E050E044E631E121E033
:100900008D01DED00883198368E059E048E0B0CF5C
:1009100000E0EAE0F1E000830183FD0100A500931F
:100920000F0101E000930E0102E033C00AE06FCF37
:100930000881023061F45A924A9270E060E050E01F
:1009400044E631E221E09A968D01BAD0EFCF04E07F
:100950005ECF5A924A9270E060E050E044E631E1A6
:1009600021E000E111E0ACD0088319836AE055E092
:1009700044E07ECF00E010E0EAE0F1E00083018394
:1009800001E000930E0103E010930F011FEFFD0142
:1009900010A72296E6E047C33FD3952F862FEAE0C3
:1009A000F1E0A081B181949720F00BE000930E015B
:1009B0004BC0F8015181552319F440930E0144C0F6
:1009C0004081403319F00081083511F404E0EECF86
:1009D000D9019A96FD0104A110E0F901E00FF11F81
:1009E00001A500931A01FD0104A1200F311FF90197
:1009F00000A500931901FD0114A112509D0102E010
:100A000052D010910E01153031F0143021F0183011
:100A100011F0173019F490930E0116C0133021F421
:100A2000FD0111811131B9F3FD011081153010F074
:100A3000002389F71081153028F41181112311F456
:100A4000002349F780930E01E4E0EFC200E008952F
:100A5000722F0024112440E001C043954717E0F4B1
:100A600061E00FC020E0322F212D220F20E0221F55
:100A7000000C111C321721F025E030E80226132665
:100A8000660F662351F350E0F801E40FF51F208153
:100A9000262341F321E0E7CF002D00931801012C1C
:100AA00000921701089520E010E002C023951395ED
:100AB0001017E0F3201711F000E0089501E0089509
:100AC000A7D2C801B22FA32F542E452E662E772E03
:100AD00008851985252D220F22B9E1E1F1E0208159
:100AE00031810217130729F025812395258300837F
:100AF0001183B23008F4442400911301E8E6F0E0D9
:100B000042C200E0009316012B2F8C01A1DFA1311E
:100B100011F0A13269F402E00093130100E00093A8
:100B2000150160B801B1072901B904EA06BF98C0F0
:100B3000A13311F0A13441F402E00093130100E06D
:100B40000093150104E4F2CF01E00093130186C085
:100B500000E0009316012B2F8C017ADF1B2F9C01E4
:100B600002E0A1DF002349F001E0009313010093AC
:100B70001401A13229F404E9D9CF02E00093130152
:100B800004E8D4CF06B7102F17FD13C0009116014B
:100B9000043068F000E000931601A13111F0A13299
:100BA00021F402EF009313015BC001E0FBCF02E0F0
:100BB000F9CF00E00093160101B1087FF3CF00E008
:100BC000009316010A2FDCD04BC000E00093160101
:100BD000152D0A2F4BD044C000E00093160100935E
:100BE0001501F6CF06B7102F17FD02C001EFDACFBF
:100BF00003EFD8CF01EF009313010FEF03B9C0CF7C
:100C000002E00093130191CF00E000931601E1E1AF
:100C1000F1E004810395048302E000931301442D65
:100C20003A2F2B2F8C0131D019C000E00093160110
:100C3000E7CF00E00093160102E00093130104ECFB
:100C400075CF00E000931601E1E1F1E00481039526
:100C50000483442D3A2F2B2F8C014AD0009314018A
:100C6000E1E1F1E002811381EAE0DBC122E02093BF
:100C70001301013111F4110F04C0013219F4110FE5
:100C8000139513B904E806BF0895C8D1F801822F5F
:100C900020E060911501062E1124861720F0E60F42
:100CA000F21F319708C0800101501040081B10400E
:100CB000F801E95EFE4F008103B9861738F490E031
:100CC0000296861792074CF0442339F0313119F41B
:100CD00004E806BF0AC004ECFCCF3131C9F704E9CF
:100CE00006BF01E00093130121E0022FE2E09FC163
:100CF00091D1D801822F932F442E00E055242091CA
:100D00001501821750F003B1A1DE13B12091150136
:100D1000A20FB51D11971C930BC013B130E02150E9
:100D20003040482F241B3040F901E75EFE4F10830E
:100D3000013029F402E00093130104E81DC0009182
:100D4000150110E0E82FF0E032960E171F0724F08F
:100D500003E00093130111C0081750F0442041F440
:100D600001E0009313015394913239F704E904C070
:100D700002E00093130104EC06BF052DE6E053C129
:100D8000013129F402E00093130104EA06C00132A4
:100D900031F402E00093130104E806BF0895013323
:100DA000C1F3013419F408EB00931301089571D0D5
:100DB000A895EBE1F1E02081318102E211E0F3DC62
:100DC00000911E010023A9F701E000931E0187D0C6
:100DD000EBE1F1E000811181012B29F400911D016B
:100DE00006D000931D0102E000931E01E1CF0050E8
:100DF00009F440C00A9519F00A9589F143C001E051
:100E000010E0EBE1F1E00083118321E030E002E249
:100E100011E04AD90093200100912001013011F422
:100E200001E008950023E1F3033039F400E000937A
:100E3000210114E017BB18BB0895043011F00230F3
:100E400079F702E007BB08BBEBE1F1E0068103950F
:100E50000683009121010F3618F302E0089501E0A6
:100E600010E0EBE1F1E000831183009121010F36E6
:100E7000B8F2FFCF01E02EE932E0EBE1F1E02083B0
:100E80003183089500E021E0EBE1F1E0208301836C
:100E90000895789401E009BF04E003BF00E002BFB9
:100EA0000FE101BD01BD01E004BB01BB01D008950C
:100EB00000E000931D0100931E0100931F0103E059
:100EC0000093200102E310E0EBE1F1E000831183E5
:100ED0001093220110934A01109321010895EBE130
:100EE000F1E000811181012B39F000811181015065
:100EF000104000831183089501E000931F010895BD
:100F00000A925A934A931A930A931FB700911E01AB
:100F1000023039F0013029F400911D0140E050E029
:100F200024D000E000931E011FBF0991199149913F
:100F3000599109901895ACC00FE90DBF00E00EBFA4
:100F4000C0E8D0E07BD0002309F088D030DF11D09A
:100F5000F2CFE199FECF08954F5F5F4F4EBB5FBB6D
:100F6000F894E29AE19A0FBE08950FB6F2DF0DBB36
:100F7000F5CFE1CF7591659155914591159011FA95
:100F8000259035900895F9DF041B10E003C0F4DFCD
:100F9000041B150B20E030E005C0ECDF041B150B33
:100FA000260B370BB8F010FC17C045910590E00FE9
:100FB000F11F0417100540E02407340758F436F4F5
:100FC00004910024F101E01BF0090994E00FF11FE6
:100FD00025903590F101099411F4D6F7F1CF3196AF
:100FE0000EF0319650E060E070E045914B3F48F0E4
:100FF00089F34F3F29F04E3F11F07591659155915E
:101000004591041B150B260B370B39F318F3E7CF6B
:101010007A926A925A924A92BA93AA939A938A932C
:1010200008957F806E805D804C80BB81AA8199810C
:101030008881F0E0EC0FFD1FEF01089501E00895B5
:1010400020E006D0E9F70895259102D0E9F7089548
:101050002D9301501040202F212B08958CE990E012
:10106000FC0105911491FC013296A591B491FC010B
:10107000349625913491422F432B19F0F901E4DF86
:1010800001C0DEDF069610E0883A910748F3089524
:10109000FFCF000A00000000000000000000000078
:1010A0000000000000000000000000000000000040
:1010B0000000000000000000000000000000000030
:1010C0000000000000000000000000000000000020
:1010D0000000000000000000000000000000000010
:1010E0000000000000000000000000000000000000
:1010F00000000000000003000000010100000000EB
:09110000010004000001000100DF
:00000001FF
:00000001FF
