:100000003BC2189518951895189518951895189538
:100010001895189518951895189518951895189578
:100020001895189518950101FA009C0001DD000152
:10003000C300050001080701081F01083001081F5F
:10004000010830011034010830010839010830017D
:10005000990D01011501011B01FB0800A000B2056B
:100060000200A8000000005F51F00F5041F0025064
:1000700031F00E5021F0025011F0025111F400E065
:10008000089501E00895722F0024112440E001C07A
:1000900043954717E0F461E00FC020E0322F212D97
:1000A000220F20E0221F000C111C321721F025E046
:1000B00030E802261326660F662351F350E0F8015C
:1000C000E40FF51F2081262341F321E0E7CF002D27
:1000D0000093A100012C0092A000089520E010E000
:1000E00002C0239513951017E0F3201711F000E0DC
:1000F000089501E008951CD2C801B22FA32F542EF9
:10010000452E662E772E08851985252D220F22B9BA
:10011000E2EAF0E0208131810217130729F02581FE
:100120002395258300831183B23008F44424009181
:10013000A400E6E2F0E0B7C100E00093A7002B2F97
:100140008C01A1DFA13111F0A13269F402E000932A
:10015000A40000E00093A60060B801B1072901B92E
:1001600004EA06BF95C0A13311F0A13441F402E0C6
:100170000093A40000E00093A60004E4F2CF01E0A5
:100180000093A40083C000E00093A7002B2F8C01F4
:100190007ADF1B2F9C0102E0A1DF002349F001E080
:1001A0000093A4000093A500A13229F404E9D9CF5B
:1001B00002E00093A40004E8D4CF06B7102F17FD87
:1001C00013C00091A700043068F000E00093A7007E
:1001D000A13111F0A13221F402EF0093A40058C024
:1001E00001E0FBCF02E0F9CF00E00093A70001B1EE
:1001F000087FF3CF00E00093A7000A2FD9D048C0B2
:1002000000E00093A700152D0A2F48D041C000E060
:100210000093A7000093A600F6CF06B7102F17FD96
:1002200002C001EFDACF03EFD8CF01EF0093A400B3
:100230000FEF03B9C0CF02E00093A40091CF00E01C
:100240000093A700E2EAF0E004810395048302E052
:100250000093A400442D3A2F2B2F8C012ED016C0D2
:1002600000E00093A700E7CF04EC06BF01E002BB6B
:10027000FDCF00E00093A700E2EAF0E004810395DF
:100280000483442D3A2F2B2F8C014AD00093A500D4
:10029000E2EAF0E002811381EAE053C122E0209318
:1002A000A400013111F4110F04C0013219F4110F2F
:1002B000139513B904E806BF089540D1F801822FC1
:1002C00020E06091A600062E1124861720F0E60F8C
:1002D000F21F319708C0800101501040081B1040E8
:1002E000F801E056FF4F008103B9861738F490E01B
:1002F0000296861792074CF0442339F0313119F4F5
:1003000004E806BF0AC004ECFCCF3131C9F704E9A8
:1003100006BF01E00093A40021E0022FE2E017C134
:1003200009D1D801822F932F442E00E0552420912B
:10033000A600821750F003B196DE13B12091A600FB
:10034000A20FB51D11971C930BC013B130E02150C3
:100350003040482F241B3040F901E855FF4F1083EF
:10036000013029F402E00093A40004E81DC00091CC
:10037000A60010E0E82FF0E032960E171F0724F0D9
:1003800003E00093A40011C0081750F0442041F48A
:1003900001E00093A4005394913239F704E904C0BA
:1003A00002E00093A40004EC06BF052DE6E0CBC0FC
:1003B000013129F402E00093A40004EA06C00132EE
:1003C00031F402E00093A40004E806BF089501336D
:1003D000C1F3013419F408EB0093A4000895AED0E2
:1003E00026970DE101BD01BD789401E001BB8E01AE
:1003F000F80120E086E021938A95E9F701E004BB4B
:100400000EEF05BB81E090E001C001968F3F0FE049
:100410009007DCF3A49A81E090E001C001968F3F41
:100420009007E4F3A49881E090E001C001968F3F2B
:100430000FE19007DCF3A49A81E090E001C00196FF
:10044000803000E29007DCF3A59A81E090E001C0E3
:10045000019680309007E4F301E010E01A930A93CC
:1004600071E06FE151E041E031E224E08E010E5F86
:100470001F4F41DEF1CF9CC00FE90DBF00E00EBF62
:10048000C0E8D0E06BD0002309F078D0A8DF01D01D
:10049000F2CFF1CF7591659155914591159011FA73
:1004A000259035900895F9DF041B10E003C0F4DFB8
:1004B000041B150B20E030E005C0ECDF041B150B1E
:1004C000260B370BB8F010FC17C045910590E00FD4
:1004D000F11F0417100540E02407340758F436F4E0
:1004E00004910024F101E01BF0090994E00FF11FD1
:1004F00025903590F101099411F4D6F7F1CF31969A
:100500000EF0319650E060E070E045914B3F48F0CE
:1005100089F34F3F29F04E3F11F075916591559148
:100520004591041B150B260B370B39F318F3E7CF56
:100530007A926A925A924A92BA93AA939A938A9317
:1005400008957F806E805D804C80BB81AA819981F7
:100550008881F0E0EC0FFD1FEF01089501E00895A0
:1005600020E006D0E9F70895259102D0E9F7089533
:100570002D9301501040202F212B08958AE590E003
:10058000FC0105911491FC013296A591B491FC01F6
:10059000349625913491422F432B19F0F901E4DF71
:1005A00001C0DEDF069610E08636910748F3089515
:0A05B000FFCFF00F00000100010072
:00000001FF
:00000001FF
