:10000000F6C418951895189518951895189518957B
:100010001895189518951895189518951895189578
:1000200018951895189567E6096A85AE67BB72F34F
:100030006E3C3AF54FA57F520E518C68059BABD9AB
:10004000831F19CDE05B982F8A4291443771CFFB13
:10005000C0B5A5DBB5E95BC25639F111F159A482EF
:100060003F92D55E1CAB98AA07D8015B8312BE8570
:100070003124C37D0C55745DBE72FEB1DE80A706CF
:10008000DC9B74F19BC1C1699BE48647BEEFC69DB2
:10009000C10FCCA10C246F2CE92DAA84744ADCA9D1
:1000A000B05CDA88F97652513E986DC631A8C827FF
:1000B00003B0C77F59BFF30BE0C64791A7D5516383
:1000C000CA0667292914850AB72738211B2EFC6D1B
:1000D0002C4D130D385354730A65BB0A6A762EC92A
:1000E000C281852C7292A1E8BFA24B661AA8708BC0
:1000F0004BC2A3516CC719E892D1240699D6853515
:100100000EF470A06A1016C1A419086C371E4C7743
:100110004827B5BCB034B30C1C394AAAD84E4FCAD4
:100120009C5BF36F2E68EE828F746F63A5781478F2
:10013000C8840802C78CFAFFBE90EB6C50A4F7A3EA
:10014000F9BEF27871C65200A000040B4000F20024
:10015000000001E001BB02BBE0ECF0E000A111A156
:100160000F79006900A311A303EE10E00ED00093F5
:10017000E200F2CFF801268137814081518162810E
:10018000738104811581F2D2089561D4EF97A1970C
:10019000C801FC01008140E250E001FF03C0258559
:1001A000368502C0258136818E01085F1F4F6BD4D2
:1001B000FC01008140E250E000FF03C02585368548
:1001C00002C0238134818E01085D1F4F5CD408E09A
:1001D000FE01FF960187FC010081FE01FF96028768
:1001E000FC010181FE01FF960387FC011281FE01E3
:1001F000FF961487DE01A45BBF4FFC01008104FF62
:100200000CC04BE050E0278130858E01045B1F4F0E
:100210003AD4DE01A95ABF4F1DC0008105FF0CC0B2
:1002200048E050E0278130858E01045B1F4F2BD4BE
:10023000DE01AC5ABF4F07C000E003C010E01D93C1
:1002400003950830D8F300E003C010E01D93039538
:100250000330D8F30EEE0D93FC01008106FF0AC0B7
:1002600044E050E0218532852C5F3F4F8D010BD457
:10027000149607C000E003C010E01D9303950430FE
:10028000D8F301E00D9303E20D93FC01008106FF1A
:1002900009C042E050E0218532852E5F3F4F8D013D
:1002A000F2D307C000E003C010E01D9303950230B5
:1002B000D8F301E002BB08E510E0088319831A8334
:1002C0001B838E01085F1F4F0C831D83FC01038578
:1002D00014850E831F838E014DDF00E002BBFC01FD
:1002E00005851685012B31F0A585B68590960C9174
:1002F0000F770C9300E0EF96A196E4E0B9C39BD38F
:10030000AA97D1500A831B832C833D834EA35FA3FE
:1003100068A779A700E0088309832BC0AB01440FCD
:10032000551F440F551FFE013696E40FF51F00813F
:10033000118122813381EA81FB81E40FF51FE857A7
:10034000FF4F0080118022803380000E111E221E7C
:10035000331E00821182228233826F5F7F4F6830AA
:1003600000E07007DCF2088119810F5F1F4F0883DE
:100370001983488159810EA11FA1401751070CF024
:10038000F1C146E00881198140D34C815D81400F65
:10039000511F60E070E016C0CB01880F991F880FD5
:1003A000991FFA01E80FF91F038012802181008153
:1003B000FE01BA96E80FF91F00821182228303839F
:1003C0006F5F7F4F603100E0700734F360E170E0F1
:1003D0007EC0DE019A968B01000F111F000F111FC6
:1003E000A00FB11FFD01E054F0400480158026806D
:1003F000378040AC51AC62AC73AC7301CE2CDF2CB7
:10040000EE24FF24D694C7948201312F3795202FF4
:10041000279510E01795D12AE22AF32A43E18201B9
:10042000930101D348014DE082019301F4D2912A56
:10043000C824D924E226F326460157014AE0820166
:100440009301F1D280269126A22604A115A126A10E
:1004500037A1800E911EA21EB31E640175014001DA
:100460005101880C892C881C9A2C991CAB2CAA1C35
:10047000BB24BB1C8001302F330FB32A42E1910112
:10048000D2D228014EE080019101C5D2512A8424A4
:100490009524A226B3262401350143E08001910171
:1004A000C2D24026512662267326C40CD51CE61CF7
:1004B000F71C0081118122813381C00ED11EE21E02
:1004C000F31ECD92DD92ED92FC926F5F7F4F603410
:1004D00000E070070CF47DCF60E070E019C08B0184
:1004E000000F111F000F111FEA81FB81E00FF11FA8
:1004F000E857FF4F0080118022803380FE0136963E
:10050000E00FF11F00821182228233826F5F7F4FE2
:10051000683000E070071CF360E070E01BC18E895A
:100520009F89A88DB98D4B01880C991C880C991C4A
:10053000CAA0DBA0ECA0FDA046E08C019D0173D217
:100540000C01302C330C330C3329080119014BE01A
:100550008C019D0168D22801390145E18C019D0182
:100560005AD2622A04241524262433263D01472C1E
:1005700046948C019D01322F3795212F2795102FFE
:10058000179500E00795402A0424112622263326D9
:10059000C00CD11CE21CF31C0A8C1B8C2C8C3D8CD7
:1005A0008C019D0100211121222133212C01409435
:1005B0005094609470940E8C1F8C28A039A0402019
:1005C0005120622073200425152526253725C00ECD
:1005D000D11EE21EF31EF401EA5BFF4F0591159157
:1005E00025913491C00ED11EE21EF31EFE01BA9673
:1005F000E80DF91D0081118122813381C00ED11EC9
:10060000E21EF31E4A845B846C847D8442E00E818A
:100610001F812885398507D23A932A931A930A9322
:100620008A8400E4B82CB09E0991199129913991DE
:100630003029480159014DE00E811F8128853985F7
:10064000F2D10801190143E10E811F812885398506
:10065000E2D1222A80249124A224B32646E10E81ED
:100660001F8128853985DFD108014AE00E811F816D
:1006700028853985D0D1112A80249124A226B32639
:10068000BA92AA929A928A920A841B842C843D84FC
:100690008A889B88AC88BD8882019301082519252A
:1006A0002A253B2500221122222233228A889B8878
:1006B000AC88BD8882019301082119212A213B21A0
:1006C0000026112622263326099119912991399164
:1006D000000D111D221D331D0E8C1F8C28A039A06A
:1006E0000AA21BA22CA23DA20A8C1B8C2C8C3D8C36
:1006F0000E8E1F8E28A239A28A8F9B8FAC8FBD8F42
:100700000A881B882C883D880C0C1D1C2E1C3F1C45
:100710000E8A1F8A288E398E0E841F842888398875
:100720000A8A1B8A2C8A3D8A4E865F86688A798A65
:100730000E801F80288439840A861B862C863D867D
:10074000C00ED11EE21EF31ECE82DF82E886F9863D
:100750006F5F7F4F603400E070070CF4E0CE60E024
:1007600070E0FDCDAA96DF5FE0E176C16CD1EF9736
:10077000EF97AA973801CA01DB0129018E010DD03C
:10078000AC01BD0193018E0132D092018E01BCD02B
:10079000EF96EF96AA96E8E067C159D1D80180E0BC
:1007A00090E016C08C01000F111F000F111FF801FF
:1007B000EA5DFF4F4591559165917491FD01E00F00
:1007C000F11FE857FF4F4083518362837383019683
:1007D000883000E0900734F3FD010483058306832D
:1007E00007830D930D930D930C93E4E041C123D146
:1007F000480159012A013B0100E410E020E030E00B
:10080000F4014481558166817781041B150B260B09
:10081000370B401651066206730618F4C201D30165
:1008200002C0C801D901AC019501B901048115814B
:1008300098018401020F131F085F1F4F9B0123D1F2
:10084000F4014481558166817781440D551D661DF3
:10085000771D403400E050076007700768F404819A
:10086000158126813781040D151D261D371D048332
:1008700015832683378346C0481A590A6A0A7B0AB9
:100880006201730146E086019701CDD0280139014C
:10089000A80EB91E41E050E060E070E09401285FCE
:1008A0003F4F84012CDDA201B3019501840127DDB6
:1008B000C6018F7390E0AC01BA01820146E0A5D079
:1008C000A00EB11E9501AB018401085F1F4FDBD064
:1008D000F401848395839683978301E0400E591E2B
:1008E000691E791E8201930146E095D040815181B5
:1008F00062817381400F511F621F731F40835183B8
:1009000062837383E0E1A8C096D048015901F401E5
:1009100004810F73083310F001E001C000E0C02E25
:10092000DD2401E0C00EDD1CEE24FF2400811181D6
:10093000228133814481558166817781040F151F9F
:10094000261F371F43E067D0C801D90146E0860162
:10095000970161D02801A20104811581401B510B30
:10096000B9010481158198018401020F131F085FEA
:100970001F4F9B0195D040E8F40104811581E00FE1
:10098000F11F4087F401E40DF51D87839683A5834D
:10099000B483A601B7019401285F3F4F8401AFDC07
:1009A00080E090E01EC0AC01440F551F440F551F5E
:1009B0008401040F151F08571F4F9501240F351F81
:1009C000F8014081F9014383F8015181F901528313
:1009D000F8016281F9016183F8017381F901708383
:1009E000019688309E05FCF2E0E136C08AC00FE92E
:1009F0000DBF00E00EBFC0E8D0E043D0002309F0F7
:100A000066D0A7DB01D0F2CFF1CF4A951AF0000FE4
:100A1000111FFBCF08954A952AF0000F111F221FC6
:100A2000331FF9CF08954A952AF0369527951795E3
:100A30000795F9CF0895FA92EA92DA92CA92BA9299
:100A4000AA929A928A927A926A925A924A92BA9305
:100A5000AA939A938A930895FF84EE84DD84CC84CC
:100A6000BB84AA84998488847F806E805D804C805A
:100A7000BB81AA8199818881F0E0EC0FFD1FEF0115
:100A8000089501E00895E3DFD801F90104C0219140
:100A90002D9341505040242F252BC9F7E4E0E8CF97
:100AA000F80103C0219341505040342F352BD1F72A
:100AB000089520E006D0E9F70895259102D0E9F7DE
:100AC00008952D9301501040202F212B089586E486
:100AD00091E0FC0105911491FC013296A591B4912D
:100AE000FC01349625913491422F432B19F0F901E2
:100AF000E4DF01C0DEDF069611E08235910748F39E
:100B00000895FFCF02000000000000000000000078
:100B100000000000000000000000000000000000D5
:100B200000000000000000000000000000000000C5
:100B300000000000000000000000000000000000B5
:100B400000000000800000050300F200A00000008B
:060B500000001201C000CC
:00000001FF
:00000001FF
