:100000000C945100189518951895189518951895F1
:100010001895189518951895189518951895189578
:100020001895189518951895189518951895189568
:100030001895189518951895189518951895189558
:100040001895189518951895189518951895189548
:10005000189518951895189501E001BB01BB02BBD6
:100060000FEF0E94450000E002BB0895219707C0F2
:1000700018811A95188318811123D1F70A95002346
:1000800011F01CE1F7CF219608958A93802F03C0C9
:1000900008E6ECDF8A958823D9F7899108950C94B6
:1000A00063000FE90DBF00E00EBFC0E8D0E00E9482
:1000B00061000E942C000E945F000C944F000C9481
:0800C0004F0001E00895FFCF9D
:00000001FF
:00000001FF
