:100000004BC5189518951895189518951895189525
:10001000189524C51895189518951895189518953C
:1000200018951895189500001C010F005B00110130
:100030000201230128019E00EE00B900CC005F0000
:100040007E009000780086008B000100B1020B005A
:100050005C0269027402C00282028D02A202AB023B
:10006000AD02B302C8020101E103A30301CA030107
:10007000B90305E50308EA0308FA0308000408FACF
:10008000030800041003040800040807040800041F
:1000900099EE0301F503010104FB5600A000F20BE9
:1000A0000D00F600000068D5D801C9010091A0003C
:1000B000E6E2F0E018C520E011E009E0CCC070E015
:1000C00060E050E8EBD021E08C01C5D1D6D00091A2
:1000D000C4001091C300011720E030F41CE0CBD025
:1000E00001E00093E800B8C01DE0C5D000E0F9CF02
:1000F00006D1CED0F9D01AE001E0ADC070E060E0EA
:1001000051E8CCD022E0F0D01BE0F6CFF8D0B5D04B
:1001100020E01EE0F1CFDCD0F7D0C3D0B9D0F3CFD0
:100120000091E800002319F0C5D0075DA2D070E06F
:1001300068E0B3D023E0D8D015E0DECFC9D0A2D09C
:100140008C01055D96D00093E500002371F070915D
:10015000C400A6D070E096D006968C0109D1009319
:10016000E50021E011E006E076C020E011E004E0C7
:1001700072C0A0D00A5F7DD000E00A9308E074D07E
:10018000AC014A5F5F4F26E099D079D00091C3005F
:1001900007700093A20060C0E091A200F0E0E0567A
:1001A000FF4F73A181D0ADD000E00A9300E158D099
:1001B00027E084D00091A200102F1A951093A2007E
:1001C000002319F021E018E097CF0091E60000230A
:1001D00021E011F416E090CF12E08ECF70E060D0F5
:1001E00000E00A933DD025E06ED034E020E069D0F5
:1001F00046D00091C40007700093A20001E0009374
:10020000E6002AC00091E700002319F422E010E084
:1002100021C020E010E000E07ED000E00093E70085
:100220001BC09D018C0136D10093E4001091A10008
:1002300020EA30E077D010C041EA50E020EA30E018
:100240008C0184D009C023E011E015D001E0E6CF95
:1002500023E011E000E05FD00091E300E4E095C40A
:1002600003D043EC50E008950A9371E862E137E26D
:1002700008951F4F7DC001E04EC03CD022C021E058
:1002800018E0F9CF60E043EC50E023EA30E0089555
:1002900070E060E102D024E0089552E042E0E7CF50
:1002A00003D003EC10E064C062E040E050E020E0E6
:1002B00030E0089570E0F8DF8C01089504D030E05C
:1002C00024E08C013CC08C0197D047E050E00895B9
:1002D00070E062E040E050E020E030E08C01075D3B
:1002E0001F4F46D070E008958C01B5D003D0E9DFF0
:1002F00020E0089547E050E030E024E20895E8DF90
:1003000003D003EA10E034C061E040E050E09C011B
:10031000275D3F4F08950093A0001093A100209304
:10032000E3000895013051F0002341F0023019F448
:10033000F9011083089503E0F90100830895035B38
:100340001F4FF801308321834283089561E0F90152
:100350006083F8010281023011F409E003C0023128
:1003600019F407E0FA01008300E00093E300089528
:1003700001D4080110E000E03324C901800F931D6F
:10038000F0E01001200E3F1E6623B9F4F101A081B8
:10039000FC01B081AB1719F44424439401C04424F8
:1003A000F0E0A42FA00FF51FEA2F50804524140D74
:1003B0008B2F8525F101808315C0613019F4FC0174
:1003C0008081F8CF623071F4F10180818295807F65
:1003D000908192959F70890F808380958083282ECD
:1003E000272620820395003238F2103210F001E007
:1003F00001C000E0E6E0C7C3BFD3D801832F1C8152
:100400003D81E02FFB2F20A703E00C9381836283C3
:1004100073831483358300E009C0FA01E00FF11FF4
:100420002081FD01E00FF11F2683039510E0E82FE6
:10043000F0E037970E171F0784F3282F26D090E09F
:10044000A80FB91F0091F600FD0102930091F7007B
:100450000C93E6E09AC390D3D801022F232F9896ED
:100460000C93989703E00D933C9311964D935D93F5
:100470006D937C93159709D00091F60016960D9315
:100480000091F7000C93E4E080C322508D010F5FD0
:100490001F4F06C16DD3D8012901A1D029F00481D5
:1004A00003950483208331836090EC0077240091CE
:1004B000EB00EAE4F0E017C38BD0002319F078D00A
:1004C00000E06CC07092EC0002E00093EB0001E0F1
:1004D00065C05A924A9273E063ED50E04FE06CD0F1
:1004E000003291F703E0F1CF86D0060D151F5BD0E7
:1004F000083411F474D041F762E052E043E014E0B4
:100500004FD0E5CF73D0060D151FFDD0912F65E0BC
:1005100056E045E0FD011181F3CF6DD044D02D01AF
:100520000EE4400E571C65E0F201518146E0108157
:1005300037D00091EC00013051F6FD0101A5F20128
:100540000083C5CF01E00C9351D0DDD001E019E06C
:100550001093EB0023C002E0F6CF3AD029D002E09E
:100560001DC00AE0B2CF823039F42BD031E221E055
:1005700099968D01C8D0ABCF7092EC0004E0A5CF66
:1005800020D01AD0912F6AE055E044E011E0B8CFB6
:100590007092ED000DD003E07092EE00E8E0F1C241
:1005A0009D01092F2BC0075D1F4FADD0912F0895DE
:1005B00001E00093EB00089531E121E00FEE10E03F
:1005C000A2C05A924A9270E060E050E048EC089570
:1005D0007092ED00FD0100A50093EE000895E9EE94
:1005E000F0E000811181401651060895EADF31E103
:1005F00021E08D010895E5DF31E2FACFBDD2952FDC
:10060000862F5091ED00543220F00BE00093EB0068
:1006100043C0002319F44093EB003EC00091EC006E
:10062000011728F4E9EEF0E003950383F4CF00E02E
:100630000093EC00D9019A96FD0104A110E0F901A4
:10064000E00FF11F00A50093F900FD0104A1F901DD
:10065000E00FF11F07A10093F800FD0114A1125053
:10066000275D3F4F02E043D01091EB00153011F0B1
:10067000143019F49093EB000FC0133021F4FD01F6
:1006800010811131B9F3FD01108123A1121711F46A
:10069000002381F78093EB00E4E077C200E0089547
:1006A000722F0024112440E011C020E0322F212DB0
:1006B000220F20E0221F000C111C321721F025E030
:1006C00030E802261326660F21F44395471750F4AD
:1006D00061E050E0F801E40FF51F2081262329F3A3
:1006E00021E0E4CF0092F7001092F600089520E098
:1006F00010E002C0239513951017E0F3201709F0BE
:10070000CDCF01E0089534D2C801B22FA32F542ECB
:10071000452E3B0108851985242F220F22B9E0EFD1
:10072000F0E0208131810217130729F025812395FC
:10073000258300831183B23008F444240091F20031
:10074000E6E6F0E0D0C17ED0A13111F0A13241F453
:100750006ED060B801B1072901B904EA06BF5CC0D8
:10076000A13311F0A13419F462D004E4F7CFAFD073
:1007700051C068D01B2F9C0102E0B9DF002339F083
:10078000A6D00093F300A13219F404E9E7CFDFD03B
:1007900004E8E4CF06B707FD10C00091F50004306F
:1007A00050F04CD0A13111F0A13219F402EF90D0E9
:1007B00033C001E0FCCF02E0FACF40D001B1087FA6
:1007C000F6CF3CD00A2FC5D027C038D0152D0A2F20
:1007D00044D022C033D00093F400F8CF06B707FD11
:1007E00002C001EFE4CF03EFE2CF01EF71D00FEFD2
:1007F00003B9CECF2BD002E0028314D03BD00AC085
:100800001DD0A5D0AACF1AD0A2D004ECA7CF1ED05D
:1008100009D061D00093F300E0EFF0E00281138192
:10082000EAE0AFC1442D3A2F2B2F8C01089502E04E
:100830000093F20000E00093F400089500E00093BC
:10084000F5000895FBDF2B2F8C012ACFF7DFE0EFB7
:10085000F0E0048103950483089522E02093F200E0
:10086000110F013119F0013211F4139513B904E895
:1008700006BF089583D1F801622F00E02091F400B3
:10088000621728F0E20FF01F129113B912C0822FE5
:1008900090E00197861B9040FC01EA50FF4F1081C9
:1008A00013B9862F90E00296821790404CF04423B3
:1008B00039F0313119F414E816BF07C014ECFCCF3D
:1008C0003131C9F704E906BF02D0E2E060C101E0BE
:1008D0000093F20008954ED1D801C901542E44244A
:1008E0000091F400801768F003B1D8DE13B12091B5
:1008F000F400A20FB41D1E93013069F428D004E85F
:1009000022C043B110E001501040021B1040F8011A
:10091000E850FF4F40830091F40010E0E82FF0E032
:1009200032960E171F071CF003E0D2DF0DC0081728
:1009300040F0552031F4CBDF4394913201F704E9C4
:1009400002C005D004EC06BF042DE6E01CC102E0A5
:10095000BFCF013119F4FBDF04EA04C0013219F4FE
:10096000F6DF04E885CF0133D9F3013411F408EB45
:10097000AFDF089501D159D0A895AAEFB0E02D912D
:100980003C911197FD010281138184DD00930201E6
:100990000091FF00002399F701E055D00D911C91C3
:1009A0001197012B29F40091FE0006D00093FE0060
:1009B00002E049D0A895E3CF002329F00A95E9F099
:1009C0000A95F9F022C047D022813381008111813C
:1009D0006ADB0093010101E039D015BB12BB009125
:1009E0000101002311F400E00895023011F401E048
:1009F00008950330C1F702E008950FD015BB02BB84
:100A000008950BD012BB05BB089500E005BB02BBE7
:100A100021E021D020830183089500E02EE932E017
:100A20001AD02083318311E00895789401E009BF42
:100A300004E003BF00E002BF09E101BD01BD01E028
:100A400004BB01BB08950093FF00089510E003D09C
:100A5000008311830895EAEFF0E008950A925A9313
:100A60004A931A930A931FB700E002BF0091FF0058
:100A7000023049F400E0E7DF1FBF09911991499165
:100A80005991099018950130A9F70091FE0040E0B6
:100A900050E01BD0EFCFACC00FE90DBF00E00EBFA0
:100AA000C0E8D0E07BD0002309F088D063DF11D00C
:100AB000F2CFE199FECF08954F5F5F4F4EBB5FBB12
:100AC000F894E29AE19A0FBE08950FB6F2DF0DBBDB
:100AD000F5CFE1CF7591659155914591159011FA3A
:100AE000259035900895F9DF041B10E003C0F4DF72
:100AF000041B150B20E030E005C0ECDF041B150BD8
:100B0000260B370BB8F010FC17C045910590E00F8D
:100B1000F11F0417100540E02407340758F436F499
:100B200004910024F101E01BF0090994E00FF11F8A
:100B300025903590F101099411F4D6F7F1CF319653
:100B40000EF0319650E060E070E045914B3F48F088
:100B500089F34F3F29F04E3F11F075916591559102
:100B60004591041B150B260B370B39F318F3E7CF10
:100B70007A926A925A924A92BA93AA939A938A93D1
:100B800008957F806E805D804C80BB81AA819981B1
:100B90008881F0E0EC0FFD1FEF01089501E008955A
:100BA00020E006D0E9F70895259102D0E9F70895ED
:100BB0002D9301501040202F212B08958AE990E0B9
:100BC000FC0105911491FC013296A591B491FC01B0
:100BD000349625913491422F432B19F0F901E4DF2B
:100BE00001C0DEDF069610E0863A910748F30895CB
:100BF000FFCF00090000000000000000000000001E
:100C000000000000000000000000000000000000E4
:100C100000000000000000000000000000000000D4
:100C200000000000000000000000000000000000C4
:100C300000000000000200000000010000010000B0
:080C40000004000001000100A6
:00000001FF
:00000001FF
