:100000003DC8189518951895189518951895189530
:10001000189518C818951895189518951895189545
:10002000189518951895010087040B00DC03FC0354
:100030000E049A042D043E045504670479048904CF
:10004000AB0400008E050F001F05890584059C0583
:10005000310534053E055205660570055C0526052B
:100060008E0548057A0501018D06320601710601EB
:100070005906059306089A0608B20608C00608B293
:100080000608C00610C60608CB0608D00608C0063B
:1000900099A00601A80601AE06FB1000A000D6112B
:1000A0005A00B00000005AD8D80101E098960C938D
:1000B00098970CE099960C93999703E00C930BE0BA
:1000C00011960C93119702E112960C93129700E08F
:1000D00013960C93139705E014960C93149700E075
:1000E00015960C93159716960C93169717960C93D6
:1000F000179718960C93189719960C93199729E04F
:100100008D010F5F1F4F55D50091B1001A960C93CA
:100110001A970091B0001B960C93E4E028C81ED8F3
:10012000D80102E098960C9398970CE099960C935E
:10013000999703E00C930BE011960C93119702E151
:1001400012960C93129700E013960C93139706E007
:1001500014960C93149700E015960C931597169629
:100160000C93169717960C93179718960C9318974D
:1001700019960C93199729E08D010F5F1F4F19D520
:100180000091B1001A960C931A970091B0001B963B
:100190000C93E4E0ECC7E2D7D80103E098960C9307
:1001A000989708E099960C93999703E00C9307E0D1
:1001B00011960C93119707E112960C93129700E891
:1001C00013960C93139700E014960C9314971596BE
:1001D0000C93159725E08D010F5F1F4FEAD4009116
:1001E000B10016960C9316970091B00017960C93D9
:1001F000E4E0BDC7B3D7D80104E098960C93989774
:1002000008E099960C93999703E00C9307E01196F8
:100210000C93119702E012960C93129700E8139634
:100220000C93139700E014960C93149715960C9367
:10023000159725E08D010F5F1F4FBBD40091B100D2
:1002400016960C9316970091B00017960C93E4E065
:100250008EC784D7D80105E098960C93989708E24A
:1002600099960C93999703E00C9307E211960C93DF
:10027000119702E112960C93129702E813960C93D1
:10028000139700E014960C93149715960C931597FA
:1002900016960C93169704E017960C9317970DEF8C
:1002A00018960C9318970EE019960C93199708ED71
:1002B0001A960C931A9705EB1B960C931B9708E460
:1002C0001C960C931C970EEA1D960C931D9704E048
:1002D0001E960C931E9700E01F960C931F9709EF34
:1002E00050960C9350970AE051960C9351970CED51
:1002F00052960C93529701EB53960C9353970CE440
:1003000054960C9354970AEA55960C9355970EE021
:1003100056960C9356970AE057960C93579703EF0F
:1003200058960C93589700E059960C93599706ED00
:100330005A960C935A970BEB5B960C935B9706E4DB
:100340005C960C935C9700EA5D960C935D9705EBC9
:100350005E960C935E9701EB5F960C935F9708E4B3
:1003600090960C9390970BEB91960C9391970DE6CA
:1003700092960C93929700E093960C9393970DEFBF
:1003800094960C9394970BE195960C93959720E295
:100390008D010A5F1F4FD2D025E28D010F5F1F4FE5
:1003A00008D40091B10096960C9396970091B000F6
:1003B00097960C93E4E0DBC6D1D6D80106E0FD01A8
:1003C00000A708E201A703E00C9307E2018302E122
:1003D000028302E8038308E0048300E0058320E24F
:1003E0008D01055D1F4FAAD0FD0103A5068314A54D
:1003F00004E01027178315A50DEF1027108716A509
:100400000EE01027118717A508ED1027128710A9F5
:1004100005EB1027138711A908E41027148712A9E8
:100420000EEA1027158713A904E01027168704A9E0
:10043000078715A909EF1027108B16A90AE01027C6
:10044000118B17A90CED1027128B10AD01EB1027A3
:10045000138B11AD0CE41027148B12AD0AEA102790
:10046000158B13AD0EE01027168BFC9610810AE059
:100470001027FD01178BFD96108103EF1027FD015A
:10048000108FFE960081FD01018FFF96108106ED11
:1004900010275A961C935A9711810BEB10275B96E5
:1004A0001C935B97128106E410275C961C935C9763
:1004B000138100EA10275D961C935D97148105EB6C
:1004C00010275E961C935E97158101EB10275F96AF
:1004D0001C935F97168108E4102790961C939097C1
:1004E00017810BEB102791961C93919710850DE6C1
:1004F000102792961C939297018593960C9393974D
:1005000012850DEF102794961C93949713850BE199
:100510001027FD0115A320E28D010A5F1F4F0ED0A9
:1005200025E28D010F5F1F4F44D30091B100FD0103
:1005300006A30091B00007A3E4E019C640E010C094
:1005400050E0F801E40FF51F50815295507F308143
:1005500032953F70530F50833081309530834395EF
:10056000421770F30895FAD5D80107E098960C93D6
:10057000989708E299960C93999703E00C9307E2F9
:1005800011960C93119702E012960C93129702E8C1
:1005900013960C93139700E114960C93149700E0B4
:1005A00015960C93159716960C93169704E01796CC
:1005B0000C9317970DEF18960C9318970EE0199659
:1005C0000C93199708ED1A960C931A9705EB1B9646
:1005D0000C931B9708E41C960C931C970EEA1D962F
:1005E0000C931D9700E01E960C931E9707E51F962F
:1005F0000C931F970EE750960C93509707E0519677
:100600000C9351970CE652960C9352970AE5539629
:100610000C93539704E254960C93549707E5559620
:100620000C93559700E056960C93569708E0579612
:100630000C9357970AEF58960C9358970CE15996DC
:100640000C93599700EB5A960C935A970AE65B96CF
:100650000C935B9700E95C960C935C970CE55D96B8
:100660000C935D9700E05E960C935E9701E05F96B9
:100670000C935F970FE390960C93909703E09196FD
:100680000C93919706E392960C9392970DE29396B2
:100690000C93939702E194960C9394970BE29596A2
:1006A0000C93959725E28D010F5F1F4F82D2009129
:1006B000B10096960C9396970091B00097960C9384
:1006C000E4E055C54BD5D80108E098960C9398976F
:1006D00099960C93999703E00C9307E011960C936D
:1006E000119707E112960C93129701E813960C9359
:1006F000139700E014960C93149715960C93159786
:1007000025E08D010F5F1F4F54D20091B100169666
:100710000C9316970091B00017960C93E4E027C550
:100720001DD5D80109E098960C93989708E0999602
:100730000C93999703E00C9307E011960C93119793
:1007400002E012960C93129700E013960C93139705
:1007500005E114960C93149700E015960C931597E9
:1007600025E08D010F5F1F4F24D20091B100169636
:100770000C9316970091B00017960C93E4E0F7C421
:1007800020E0F80120A70895E7D42297D801290195
:10079000E0EAF0E0028113814016510641F0008149
:1007A00011810F5F1F4F008311834282538200919A
:1007B000A400E6E2F0E089C400E0E0EAF0E00083B3
:1007C0000183FD0100A50F3F29F401E00093A4007F
:1007D00003E0D0C00091A50010A5011719F000A5F5
:1007E000002329F401E00093A40000E0C3C002E06C
:1007F0000093A40001E0BEC05A924A9272E064E203
:1008000050E041E431E121E006EA10E00AD2088339
:1008100019830881003259F703E0EACF5A924A92CD
:1008200070E060E050E044E631E224E08D01065DD6
:100830001F4FF7D1088319830881083439F4E0EA9F
:10084000F0E0028113814016510689F662E055E01E
:1008500043E09D018E0191D0CDCF5A924A9270E033
:1008600060E050E044E631E1FD0121A58D01D9D1E0
:100870000883198365E056E045E0EBCFCD01825B4C
:100880009F4F5A924A9270E060E050E044E631E2B5
:10089000FC0120818D01065D1F4FC3D108831983A0
:1008A00065E0FC01518146E0D4CF01E00C935A92FF
:1008B0004A9270E060E050E044E631E121E08D01D1
:1008C000B0D10883198367E059E047E0C2CF02E066
:1008D0000C935A924A9270E060E050E044E631E1B5
:1008E00021E08D019ED10883198368E059E048E03A
:1008F000B0CF00E0E0EAF0E000830183FD0100A555
:100900000093A50001E00093A40002E033C00AE0D8
:100910006FCF0881023061F45A924A9270E060E031
:1009200050E044E631E221E09A968D017AD1EFCF92
:1009300004E05ECF5A924A9270E060E050E044E6F4
:1009400031E121E006EA10E06CD1088319836AE006
:1009500055E044E07ECF00E010E0E0EAF0E0008304
:10096000018301E00093A40003E01093A5001FEFB2
:10097000FD0110A72296E6E0F8C3F0D3952F862F4D
:10098000E0EAF0E0A081B181949720F00BE00093C1
:10099000A4004BC0F8015181552319F44093A400E1
:1009A00044C04081403319F00081083511F404E05F
:1009B000EECFD9019A96FD0104A110E0F901E00FF4
:1009C000F11F01A50093B300FD0104A1200F311F09
:1009D000F90100A50093B200FD0114A112509D0180
:1009E00002E012D11091A400153031F0143021F042
:1009F000183011F0173019F49093A40016C013307A
:100A000021F4FD0111811131B9F3FD01108115307F
:100A100010F0002389F71081153028F4118111237B
:100A200011F4002349F78093A400E4E0A0C396D317
:100A3000C801D9010091A700E2E4F0E046C320E03C
:100A400011E00BE083D08C019BDE7CC08C0168DE62
:100A500047E050E027E08C01A4D020E014E001E062
:100A600070C08C018CD06EC08C011DDB47E050E063
:100A700024E08C0196D020E016E0F1CF8C014FDB12
:100A800047E050E024E08C018CD020E01DE0E7CF6F
:100A90008C0181DB47E050E024E08C0182D020E033
:100AA00017E0DDCF8C01D5DB47E050E024E08C017E
:100AB00078D020E01AE0D3CF8C019CDB47E050E0F7
:100AC00023E28C016ED020E018E0C9CF8C0174DCE9
:100AD00047E050E024E08C0164D020E019E0BFCF73
:100AE0008C0141DD47E050E024E08C015AD020E049
:100AF0001EE0B5CF8C01E6DD47E050E024E08C013C
:100B000050D020E012E0ABCF8C013ADE21E010E0C3
:100B100017C09D018C0138DE20D014C001E04016C2
:100B200019F420E01BE00DC003E0401620E011E0C6
:100B300009F488CF00E086CF8C0122DE22E011E0AC
:100B400000E004D00091A900E4E011C30093A700E5
:100B50001093A8002093A900089510E01093A90015
:100B6000013061F0023011F0002329F40091A80057
:100B70000093A700089503E00093A700089520E0E4
:100B80002093A900F80126A5253511F405E004C03D
:100B900005A5053521F407E00093A700089502E0BC
:100BA000FBCF025B1F4FF80120834183089500E0D3
:100BB0000895722F0024112440E001C04395471787
:100BC000E0F461E00FC020E0322F212D220F20E061
:100BD000221F000C111C321721F025E030E80226FC
:100BE0001326660F662351F350E0F801E40FF51F5A
:100BF0002081262341F321E0E7CF002D0093B100AF
:100C0000012C0092B000089520E010E002C023956E
:100C100013951017E0F3201711F000E0089501E09C
:100C2000089598D2C801B22FA32F742E452E562EA8
:100C3000672E08851985272D220F22B9EAEAF0E0F0
:100C4000208131810217130729F0258123952583FF
:100C500000831183B23008F444240091AC00E6E62E
:100C6000F0E033C200E00093AF002B2F8C01A1DF36
:100C7000A13111F0A13269F412E000E0A4D000E04B
:100C80000093AE0050B801B1062901B904EA06BFCD
:100C900094C0A13311F0A13441F412E000E093D0EC
:100CA00000E00093AE0004E4F2CF11E001E08BD04D
:100CB00084C000E00093AF002B2F8C017ADF1B2F44
:100CC0009C0102E0A1DF002339F011E001E07BD0BC
:100CD000A13229F404E9DBCF12E000E074D004E88B
:100CE000D6CF06B7102F17FD12C00091AF00043009
:100CF00058F000E00093AF00A13111F0A13211F4DF
:100D000012EFD5CF11E0D3CF12E000E0D0CF00E05A
:100D10000093AF0011B1187FCACF00E00093AF007D
:100D20000A2FE0D04AC000E00093AF00172D0A2F31
:100D300054D0EACF00E00093AF000093AE00F6CFAE
:100D400006B7102F17FD02C011EFDFCF13EFDDCF75
:100D500011EF00E038D00FEF03B9C1CF12E000E08F
:100D600032D094CF00E00093AF00EAEAF0E00481D3
:100D700003950483442D3A2F2B2F8C013AD01DC0AC
:100D800000E00093AF0004EA06BFBECF00E000938E
:100D9000AF0004ECF9CF00E00093AF0012E0E0CF29
:100DA00000E00093AF00EAEAF0E0048103950483D9
:100DB000442D3A2F2B2F8C014ED0EAEAF0E002812D
:100DC0001381EAE0D0C1002311F001E001C000E08E
:100DD0000093AD001093AC000895013111F4110F90
:100DE00004C0013219F4110F139513B904E806BFBA
:100DF0000895B6D1F8016091AE00062E1124261791
:100E000020F0E60FF11D319708C0C0010197022FB5
:100E1000801B9040FC01E055FF4F008103B926176D
:100E200040F4822F90E00296861791055CF04423EF
:100E300049F0313129F404E806BF12E000E008C0AF
:100E400004ECFACF3131B9F704E906BF11E001E053
:100E5000BADFE2E08EC181D1D801822F932F442ED8
:100E600000E02091AE00821758F003B1A0DE13B16C
:100E70002091AE0030E0A20FB31F11971C930BC05E
:100E800013B130E021503040482F241B3040F9018D
:100E9000EE54FF4F1083013031F412E000E093DF95
:100EA00004E806BF1DC00091AE0010E0E82FF0E09E
:100EB00032960E171F0714F013E010C0081758F0F1
:100EC000442049F4913229F404E906BF11E001E01D
:100ED00006C004E8FACF04EC06BF12E000E073DFBE
:100EE000E5E044C1013129F412E000E06CDF04EADE
:100EF00006C0013231F412E000E065DF04E806BF0D
:100F000008950133C1F3013419F418EB00E05BDFFD
:100F1000089563D0A895E4EBF0E0208131810AEBDD
:100F200010E032DC0091B7000023A9F701E0009344
:100F3000B70077D0E4EBF0E000811181012B29F4B8
:100F40000091B60006D00093B60002E00093B7000F
:100F5000E1CF005029F00A9511F10A9551F134C002
:100F6000E4EBF0E0208131810AEB10E060DD0093DA
:100F7000B90001E010E0E4EBF0E00083118315BB61
:100F800002BB0091B900002311F400E00895013084
:100F900011F401E008950230C1F702E0089500E085
:100FA0002EE932E0E4EBF0E02083318311E015BB61
:100FB00012C000E02EE932E0E4EBF0E02083318360
:100FC00011E012BB05BB089500E021E0E4EBF0E086
:100FD0002083018305BB02BB0895789401E009BF1B
:100FE00004E003BF00E002BF0FE101BD01BD01E06D
:100FF00004BB01BB01D0089500E00093B60000934C
:10100000B7000093B80001E00093B90002E310E0DC
:10101000E4EBF0E0008311831093BA001093E20038
:101020000895E4EBF0E000811181012B39F000819B
:1010300011810150104000831183089501E0009355
:10104000B80008950A925A934A931A930A931FB7C5
:101050000091B700023039F0013029F40091B60058
:1010600040E050E024D000E00093B7001FBF09919A
:1010700019914991599109901895ACC00FE90DBF8C
:1010800000E00EBFC0E8D0E07BD0002309F088D09C
:1010900040DF11D0F2CFE199FECF08954F5F5F4F4F
:1010A0004EBB5FBBF894E29AE19A0FBE08950FB66B
:1010B000F2DF0DBBF5CFE1CF75916591559145916B
:1010C000159011FA259035900895F9DF041B10E072
:1010D00003C0F4DF041B150B20E030E005C0ECDF9B
:1010E000041B150B260B370BB8F010FC17C04591ED
:1010F0000590E00FF11F0417100540E024073407A6
:1011000058F436F404910024F101E01BF00909942D
:10111000E00FF11F25903590F101099411F4D6F7F5
:10112000F1CF31960EF0319650E060E070E04591DD
:101130004B3F48F089F34F3F29F04E3F11F0759136
:10114000659155914591041B150B260B370B39F30F
:1011500018F3E7CF7A926A925A924A92BA93AA9374
:101160009A938A9308957F806E805D804C80BB81C6
:10117000AA8199818881F0E0EC0FFD1FEF010895AD
:1011800001E0089520E006D0E9F70895259102D006
:10119000E9F708952D9301501040202F212B089539
:1011A0008AE990E0FC0105911491FC013296A59129
:1011B000B491FC01349625913491422F432B19F0C0
:1011C000F901E4DF01C0DEDF069610E0863A910700
:1011D00048F30895FFCF00000000010004000B0059
:0611E00000000100010007
:00000001FF
:00000001FF
