:100000004DC8189518951895189518951895189520
:10001000189528C818951895189518951895189535
:10002000189518951895010087040B00E403FC034C
:100030000E049A042D043E045504670479048904CF
:10004000AB04000086050F001C0581057E059205A6
:100050002B052E0538054C0560056A05560520055B
:1000600086054205740501017E0626060162060129
:100070004A06058406088B0608A30608B10608A3ED
:100080000608B10610B70608BC0608C10608B10686
:1000900008CF0620C10608B70618CF0608D50610F7
:1000A000A30608B70608DC06299106019906019FF8
:1000B00006FB1000A000F6115B00B00000005ED847
:1000C000D80101E098960C9398970CE099960C93C0
:1000D000999703E00C930BE011960C93119702E1B2
:1000E00012960C93129700E013960C93139705E069
:1000F00014960C93149700E015960C93159716968A
:100100000C93169717960C93179718960C931897AD
:1001100019960C93199729E08D010F5F1F4F3DD55C
:100120000091B1001A960C931A970091B0001B969B
:100130000C93E4E02CC822D8D80102E098960C93E6
:1001400098970CE099960C93999703E00C930BE029
:1001500011960C93119702E112960C93129700E0FE
:1001600013960C93139706E014960C93149700E0E3
:1001700015960C93159716960C93169717960C9345
:10018000179718960C93189719960C93199729E0BE
:100190008D010F5F1F4F01D50091B1001A960C938E
:1001A0001A970091B0001B960C93E4E0F0C7E6D7D5
:1001B000D80103E098960C93989708E099960C93D1
:1001C000999703E00C9307E011960C93119707E1C0
:1001D00012960C93129700E813960C93139700E075
:1001E00014960C93149715960C93159725E08D0192
:1001F0000F5F1F4FD2D40091B10016960C93169743
:100200000091B00017960C93E4E0C1C7B7D7D801AE
:1002100004E098960C93989708E099960C93999718
:1002200003E00C9307E011960C93119702E01296ED
:100230000C93129700E813960C93139700E0149612
:100240000C93149715960C93159725E08D010F5F6D
:100250001F4FA3D40091B10016960C9316970091EE
:10026000B00017960C93E4E092C788D7D80105E058
:1002700098960C93989708E299960C93999703E0B7
:100280000C9307E211960C93119702E112960C93CE
:10029000129702E813960C93139700E014960C93B0
:1002A000149715960C93159716960C93169704E0D1
:1002B00017960C9317970DEF18960C9318970EE05E
:1002C00019960C93199708ED1A960C931A9705EB4B
:1002D0001B960C931B9708E41C960C931C970EEA34
:1002E0001D960C931D9704E01E960C931E9700E03C
:1002F0001F960C931F9709EF50960C9350970AE0A6
:1003000051960C9351970CED52960C93529701EB2A
:1003100053960C9353970CE454960C9354970AEA13
:1003200055960C9355970EE056960C9356970AE007
:1003300057960C93579703EF58960C93589700E0F5
:1003400059960C93599706ED5A960C935A970BEBC6
:100350005B960C935B9706E45C960C935C9700EAC3
:100360005D960C935D9705EB5E960C935E9701EBA3
:100370005F960C935F9708E490960C9390970BEB25
:1003800091960C9391970DE692960C93929700E0BC
:1003900093960C9393970DEF94960C9394970BE18F
:1003A00095960C93959720E28D010A5F1F4FD2D04E
:1003B00025E28D010F5F1F4FF0D30091B10096969B
:1003C0000C9396970091B00097960C93E4E0DFC6EB
:1003D000D5D6D80106E0FD0100A708E201A703E099
:1003E0000C9307E2018302E1028302E8038308E041
:1003F000048300E0058320E28D01055D1F4FAAD034
:10040000FD0103A5068314A504E01027178315A595
:100410000DEF1027108716A50EE01027118717A5DE
:1004200008ED1027128710A905EB1027138711A9D3
:1004300008E41027148712A90EEA1027158713A9BC
:1004400004E01027168704A9078715A909EF1027CC
:10045000108B16A90AE01027118B17A90CED102795
:10046000128B10AD01EB1027138B11AD0CE410278C
:10047000148B12AD0AEA1027158B13AD0EE010276E
:10048000168BFC9610810AE01027FD01178BFD9654
:10049000108103EF1027FD01108FFE960081FD01F2
:1004A000018FFF96108106ED10275A961C935A97DC
:1004B00011810BEB10275B961C935B97128106E46E
:1004C00010275C961C935C97138100EA10275D96B9
:1004D0001C935D97148105EB10275E961C935E9725
:1004E000158101EB10275F961C935F97168108E436
:1004F000102790961C93909717810BEB10279196DD
:100500001C93919710850DE6102792961C93929755
:10051000018593960C93939712850DEF102794966F
:100520001C93949713850BE11027FD0115A320E27E
:100530008D010A5F1F4F0ED025E28D010F5F1F4F07
:100540002CD30091B100FD0106A30091B00007A3D8
:10055000E4E01DC640E010C050E0F801E40FF51FD4
:1005600050815295507F308132953F70530F5083A8
:100570003081309530834395421770F30895FED54E
:10058000D80107E098960C93989708E299960C93F7
:10059000999703E00C9307E211960C93119702E0F0
:1005A00012960C93129702E813960C93139700E19E
:1005B00014960C93149700E015960C9315971696C5
:1005C0000C93169704E017960C9317970DEF189657
:1005D0000C9318970EE019960C93199708ED1A963C
:1005E0000C931A9705EB1B960C931B9708E41C962B
:1005F0000C931C970EEA1D960C931D9700E01E9617
:100600000C931E9702E01F960C931F970EE75096CF
:100610000C93509707E051960C9351970CE6529625
:100620000C9352970AE553960C93539704E2549611
:100630000C93549707E555960C93559700E0569602
:100640000C93569708E057960C9357970AEF5896D5
:100650000C9358970CE159960C93599700EB5A96C6
:100660000C935A970AE65B960C935B9700E95C96AD
:100670000C935C970CE55D960C935D9700E05E969D
:100680000C935E9701E05F960C935F970FE3909653
:100690000C93909703E091960C93919706E39296B2
:1006A0000C9392970DE293960C93939702E1949694
:1006B0000C9394970BE295960C93959725E28D01F8
:1006C0000F5F1F4F6AD20091B10096960C939697D8
:1006D0000091B00097960C93E4E059C54FD5D8012E
:1006E00008E098960C93989799960C93999703E045
:1006F0000C9307E011960C93119707E112960C9357
:10070000129701E813960C93139700E014960C933C
:10071000149715960C93159725E08D010F5F1F4FC9
:100720003CD20091B10016960C9316970091B00040
:1007300017960C93E4E02BC521D5D80109E09896D3
:100740000C93989708E099960C93999703E00C9373
:1007500007E011960C93119702E012960C931297F2
:1007600000E013960C93139705E114960C931497DD
:1007700000E015960C93159725E08D010F5F1F4F34
:100780000CD20091B10016960C9316970091B00010
:1007900017960C93E4E0FBC4EFD42297D80129010B
:1007A000E0EAF0E0028113814016510641F0008139
:1007B00011810F5F1F4F008311834282538200918A
:1007C000A400E6E2F0E091C400E0E0EAF0E000839B
:1007D00001830091A500FD0110A5011719F000A5E6
:1007E000002329F401E00093A40000E0C0C002E06F
:1007F0000093A40001E0BBC05A924A9272E064E206
:1008000050E041E431E121E006EA10E0FED1088346
:1008100019830881003259F703E0EACF5A924A92CD
:1008200070E060E050E044E631E224E08D01065DD6
:100830001F4FEBD1088319830881083439F4E0EAAB
:10084000F0E0028113814016510689F662E055E01E
:1008500043E09D018E018ED0CDCF5A924A9270E036
:1008600060E050E044E631E1FD0121A58D01CDD1EC
:100870000883198365E056E045E0EBCFCD01825B4C
:100880009F4F5A924A9270E060E050E044E631E2B5
:10089000FC0120818D01065D1F4FB7D108831983AC
:1008A00065E0FC01518146E0D4CF01E00C935A92FF
:1008B0004A9270E060E050E044E631E121E08D01D1
:1008C000A4D10883198367E059E047E0C2CF02E072
:1008D0000C935A924A9270E060E050E044E631E1B5
:1008E00021E08D0192D10883198368E059E048E046
:1008F000B0CF00E0E0EAF0E000830183FD0100A555
:100900000093A50001E00093A40002E030C00AE0DB
:100910006FCF0881023061F45A924A9270E060E031
:1009200050E044E631E221E09A968D016ED1EFCF9E
:1009300004E05ECF5A924A9270E060E050E044E6F4
:1009400031E121E006EA10E060D1088319836AE012
:1009500055E044E07ECF00E010E0E0EAF0E0008304
:10096000018301E00093A40003E01093A500229608
:10097000E6E00BC403D4952F862FE0EAF0E0A081D7
:10098000B181949720F00BE00093A4004BC0F801D4
:100990005181552319F44093A40044C04081403351
:1009A00019F00081083511F404E0EECFD9019A96D0
:1009B000FD0104A110E0F901E00FF11F01A5009372
:1009C000B300FD0104A1200F311FF90100A5009320
:1009D000B200FD0114A112509D0102E009D1109155
:1009E000A400153031F0143021F0183011F0173018
:1009F00019F49093A40016C0133021F4FD01118165
:100A00001131B9F3FD011081153010F0002389F781
:100A10001081153028F41181112311F4002349F7B6
:100A20008093A400E4E0B3C3A9D3C801D901009125
:100A3000A700E2E4F0E059C320E011E00BE075C04C
:100A40008C017ADE47E050E027E08C019ED020E068
:100A500014E001E06AC08C0186D068C08C012FDBF5
:100A600047E050E024E08C0190D020E016E0F1CF88
:100A70008C0161DB47E050E024E08C0186D020E06F
:100A80001DE0E7CF8C0193DB47E050E024E08C01D0
:100A90007CD020E017E0DDCF8C01E7DB47E050E0C1
:100AA00024E08C0172D020E01AE0D3CF8C01AEDBC1
:100AB00047E050E023E28C0168D020E018E0C9CF85
:100AC0008C0186DC47E050E024E08C015ED020E021
:100AD00019E0BFCF8C0153DD47E050E024E08C01EA
:100AE00054D020E01EE0B5CF8C01F8DD47E050E0A7
:100AF00024E08C014AD020E012E0ABCF21E010E0EE
:100B000013C09D018C0148DE1CD010C001E04016CE
:100B100019F420E01BE009C003E0401620E011E0DA
:100B200021F002C022E011E000E004D00091A90011
:100B3000E4E02DC30093A7001093A8002093A90020
:100B4000089510E01093A900013061F0023011F017
:100B5000002329F40091A8000093A700089503E062
:100B60000093A700089520E02093A900F80126A58E
:100B7000253511F405E004C005A5053521F407E08D
:100B80000093A700089502E0FBCF025B1F4FF8011E
:100B900020834183089500E00895722F00241124DA
:100BA00040E001C043954717E0F461E00FC020E04A
:100BB000322F212D220F20E0221F000C111C321792
:100BC00021F025E030E802261326660F662351F354
:100BD00050E0F801E40FF51F2081262341F321E0C6
:100BE000E7CF002D0093B100012C0092B0000895D2
:100BF00020E010E002C0239513951017E0F32017B2
:100C000011F000E0089501E00895B4D2C801B22FB8
:100C1000A32F742E452E562E672E08851985272D55
:100C2000220F22B9EAEAF0E020813181021713078E
:100C300029F025812395258300831183B23008F4A0
:100C400044240091AC00E6E6F0E04FC200E00093DF
:100C5000AF002B2F8C01A1DFA13111F0A13269F47B
:100C600012E000E0B7D000E00093AE0050B801B150
:100C7000062901B904EA06BFA7C0A13311F0A134C7
:100C800041F412E000E0A6D000E00093AE0004E4DE
:100C9000F2CF97C000E00093AF002B2F8C017DDFD7
:100CA0001B2F9C0102E0A4DF002339F011E001E0DA
:100CB00091D0A13229F404E9DECF12E000E08AD01D
:100CC00004E8D9CF06B7102F17FD12C00091AF006E
:100CD000043058F000E00093AF00A13111F0A132D0
:100CE00011F412EF70C011E06EC012E000E06BC0B2
:100CF00000E00093AF0011B1187F65C000E00093E1
:100D0000AF000A2FF6D060C000E00093AF00172DAF
:100D10000A2F6AD0EACF00E00093AF000093AE0044
:100D2000F6CF06B7102F17FD02C011EFDFCF13EF7C
:100D3000DDCF11EF00E04ED00FEF03B9C1CF12E0CD
:100D400000E048D097CF00E00093AF00EAEAF0E07F
:100D5000048103950483442D3A2F2B2F8C0150D00E
:100D600033C000E00093AF0004EA06BFBECF00E04E
:100D70000093AF0004ECF9CF00E00093AF0012E065
:100D8000E0CF00E00093AF00EAEAF0E004810395D1
:100D90000483442D3A2F2B2F8C0164D015C000E022
:100DA0000093AF000093AE00E5CF00E00093AF00EA
:100DB00001E00093AE00CFCF00E00093AF0004E865
:100DC00006BF11E001E006D0EAEAF0E002811381FB
:100DD000EAE0D9C1002311F001E001C000E0009376
:100DE000AD001093AC000895013111F4110F04C04F
:100DF000013219F4110F139513B904E806BF0895D1
:100E0000BFD1F8016091AE00062E1124261720F004
:100E1000E60FF11D319708C0C0010197022F801B1A
:100E20009040FC01E055FF4F008103B9261740F4C4
:100E3000822F90E00296861791055CF0442349F0DA
:100E4000313129F404E806BF12E000E008C004ECE8
:100E5000FACF3131B9F704E906BF11E001E0BADF9A
:100E6000E2E097C18AD1D801822F932F442E00E06F
:100E70002091AE00821758F003B18DDE13B120919E
:100E8000AE0030E0A20FB31F11971C930BC013B13B
:100E900030E021503040482F241B3040F901EE54FF
:100EA000FF4F1083013031F412E000E093DF04E8DB
:100EB00006BF1DC00091AE0010E0E82FF0E03296B2
:100EC0000E171F0714F013E010C0081758F0442045
:100ED00049F4913229F404E906BF11E001E006C0AB
:100EE00004E8FACF04EC06BF12E000E073DFE5E0AF
:100EF0004DC1013129F412E000E06CDF04EA06C0C4
:100F0000013231F412E000E065DF04E806BF089525
:100F10000133C1F3013419F418EB00E05BDF0895ED
:100F200069D0A895E4EBF0E0208131810BEB10E073
:100F300033DC0093BA000091B700002399F701E079
:100F40000093B7007ED0E4EBF0E000811181012B2B
:100F500029F40091B60006D00093B60002E0009399
:100F6000B700DFCF005029F00A9511F10A9551F131
:100F700038C0E4EBF0E0208131810BEB10E054DD70
:100F80000093B90001E010E0E4EBF0E0008311838E
:100F900015BB12BB0091B900002311F400E00895C5
:100FA000013011F401E008950230C1F702E0089524
:100FB00000E02EE932E0E4EBF0E02083318311E041
:100FC00015BB16C000E02EE932E0E4EBF0E0208330
:100FD000318311E012BB05BB0093BB000093E3001B
:100FE000089500E021E0E4EBF0E02083018305BBFD
:100FF00002BB0895789401E009BF04E003BF00E05C
:1010000002BF0FE101BD01BD01E004BB01BB01D086
:10101000089500E00093B6000093B7000093B80075
:1010200001E00093B90000E00093BA0002E310E091
:10103000E4EBF0E0008311831093BB001093E30016
:101040000895E4EBF0E000811181012B39F000817B
:1010500011810150104000831183089501E0009335
:10106000B80008950A925A934A931A930A931FB7A5
:101070000091B700023039F0013029F40091B60038
:1010800040E050E024D000E00093B7001FBF09917A
:1010900019914991599109901895ACC00FE90DBF6C
:1010A00000E00EBFC0E8D0E07BD0002309F088D07C
:1010B00037DF11D0F2CFE199FECF08954F5F5F4F38
:1010C0004EBB5FBBF894E29AE19A0FBE08950FB64B
:1010D000F2DF0DBBF5CFE1CF75916591559145914B
:1010E000159011FA259035900895F9DF041B10E052
:1010F00003C0F4DF041B150B20E030E005C0ECDF7B
:10110000041B150B260B370BB8F010FC17C04591CC
:101110000590E00FF11F0417100540E02407340785
:1011200058F436F404910024F101E01BF00909940D
:10113000E00FF11F25903590F101099411F4D6F7D5
:10114000F1CF31960EF0319650E060E070E04591BD
:101150004B3F48F089F34F3F29F04E3F11F0759116
:10116000659155914591041B150B260B370B39F3EF
:1011700018F3E7CF7A926A925A924A92BA93AA9354
:101180009A938A9308957F806E805D804C80BB81A6
:10119000AA8199818881F0E0EC0FFD1FEF0108958D
:1011A00001E0089520E006D0E9F70895259102D0E6
:1011B000E9F708952D9301501040202F212B089519
:1011C00082EB90E0FC0105911491FC013296A5910F
:1011D000B491FC01349625913491422F432B19F0A0
:1011E000F901E4DF01C0DEDF069610E08E3B9107D7
:1011F00048F30895FFCF00000000010004000B0039
:06120000000001000100E6
:00000001FF
:00000001FF
