:10000000ABC71895189518951895189518951895C3
:10001000189586C7189518951895189518951895D8
:100020001895189518950000BE0210007800B902C6
:100030009E02EE02DE027601C8017602E901130299
:100040008A00D9004301AF00F3001C0101009F04A6
:100050000B00F40314042604B204450456046D0492
:100060007F049104A104C3040101EB058D0501CEB9
:100070000501B40505F10508F80508100608210674
:10008000081006082106102506082106082D060876
:10009000210699FE05010606010C06FB7A00A00068
:1000A000B2105B001A010000C7D7C801D901009146
:1000B000A000002311F401E001C000E000930A0158
:1000C00000910A01002379F00FEF00930A010093D9
:1000D0000B010093A00001E007BB00E0C09901E024
:1000E0000095017008BB0091A000E6E2F0E05BC75C
:1000F00000E00A930A930A9370E060E050E040E069
:1001000030E020E08C0120D331E020E011E00AE073
:100110007ED279C200E00A930A930A9370E060E805
:1001200052E047E033E021E08C010ED347E050E09D
:1001300024E28C0190D20091C5001091C4000117F7
:1001400031E020E038F41DE001E061D201E00093ED
:10015000080159C21EE001E05AD200E0F8CF70E079
:1001600062E040E050E020E030E08C01055D1F4F90
:1001700080D270E061E040E050E09C01255D3F4F9F
:1001800004EA10E076D200E00A930A930A9370E141
:1001900062E052E047E033E024E08C01D5D247E052
:1001A00050E024E28C0157D231E020E01BE001E076
:1001B000AFCF8C0156D20093090100E00A930A9355
:1001C0000A9370E061E852E047E033E022E08C01FE
:1001D000BBD247E050E024E28C013DD230910901CE
:1001E00020E01CE0E4CF70E062E040E050E020E07E
:1001F00030E08C01055D1F4F3CD270E061E040E0D3
:1002000050E09C01255D3F4F04EA10E032D200E04F
:100210000A930A930A9370E061E852E047E033E002
:1002200022E08C0191D247E050E024E28C0113D20D
:1002300031E020E01FE0BBCF70E062E040E050E042
:1002400020E030E08C01055D1F4F13D270E061E0CB
:1002500040E050E09C01255D3F4F04EC10E009D2E6
:1002600000E00A930A930A9370E162E052E047E0EB
:1002700033E024E08C0168D247E050E024E28C01B6
:10028000EAD131E0ADCF009108010023A9F070E080
:1002900062E040E050E020E030E08C01055D1F4F5F
:1002A000E8D170E061E040E050E09C01255D3F4F07
:1002B00004EC10E0DED104C08C01D3D1009309011D
:1002C00000E00A930A930A9378E062E052E047E084
:1002D00033E023E08C0138D247E050E024E28C0187
:1002E000BAD13091090120E015E061CF00E00A9316
:1002F0000A930A9370E060E050E040E030E020E0D4
:100300008C0122D270E061E040E050E08B969C01CD
:1003100004EE10E0AED170E062E040E050E020E09A
:1003200030E004EE10E0A5D170E060E044EC50E075
:1003300024EA30E004EE10E09CD100930501109116
:1003400005012091090101E02027122BC1F07091D5
:10035000C50062E040E050E020E030E004EC10E056
:1003600088D170E063E044EC50E024EA30E004EE31
:1003700010E07FD131E021E011E006E004C031E07F
:1003800024E011E004E043D101E0009309013BC106
:100390007091AE0064E040E050E020E030E004EA1C
:1003A00010E067D104EA10E01A930A9300E00A9380
:1003B00070E161E852E147E233E027E08C01C4D10B
:1003C00047E050E024E08C0146D131E021E018E024
:1003D000EECE70E062E040E050E020E030E004EE7D
:1003E00010E047D104EE10E01A930A9300E00A935C
:1003F00078E061E852E147E233E026E08C01A4D1E5
:1004000047E050E024E08C0126D131E021E019E002
:1004100001E0FDD00091C40007700093A30000E04C
:1004200000930601F0C01091A300012F0A950093DC
:10043000A3001123A9F010910601112389F410E003
:10044000F801E056FF4F75A164E040E050E020E085
:1004500030E004EE10E00DD131E021E019E030C0D1
:10046000102F0A950093A30020910601112349F053
:10047000222339F010E0F801E056FF4F75A165E046
:10048000E4CF10E0E0EAF0E0E00FF11F75A12223D5
:1004900061F464E040E050E020E030E004EE10E081
:1004A000E8D031E021E017E00BC065E040E050E02B
:1004B00020E030E004EC10E0DCD031E021E012E09C
:1004C00001E0A5D004EE10E01A930A9300E00A932D
:1004D00070E161E852E147E233E027E08C0134D17A
:1004E00047E050E024E08C01B6D08DC070E062E0BF
:1004F00040E050E020E030E004EC10E0BAD004EC42
:1005000010E01A930A9300E00A9370E061E852E168
:1005100047E233E025E08C0117D147E050E024E0CA
:100520008C0199D031E021E019E001E070D0009118
:10053000C50007700093A30001E072CF00E00A93AA
:100540000A930A9370E060E050E040E030E020E081
:100550008C01FAD000910701002331E021F423E05F
:1005600010E000E0D5CD20E010E000E050D000E049
:1005700048C09D018C0120D157D045C001E04016F4
:1005800021F431E020E010E012CE03E0401689F4BF
:1005900000E00A930A930A9370E060E050E040E0C4
:1005A00030E020E08C01D0D031E020E011E003E029
:1005B000AFCD442019F002E0401619F700E00A938D
:1005C0000A930A9370E060E050E040E030E020E001
:1005D0008C01BAD031E020E011E0C3CF00E00A93F3
:1005E0000A930A9370E060E050E040E030E020E0E1
:1005F0008C01AAD031E020E01091A10001E007D0E9
:1006000001E00093070100910401E4E01EC500939E
:10061000A0001093A100332321F402E00093040111
:100620000895209304010895013089F0023011F0FB
:10063000002319F40091A10008C0033029F403E05D
:100640000093A00004E004C001E00093A00000E0DB
:10065000009304010895025B1F4FF801208341833A
:100660000895F80103A9057511F400E0089501E06B
:100670000895E0D4D80110E000E01BC0623021F002
:10068000643011F06530A1F4202E33240D01020CEA
:10069000131CF00180818295807F908192959F70DC
:1006A000890F80832080209420820080072600828A
:1006B00003950032B0F5662311F0633029F5002E62
:1006C00011241901200C311CE02FF0E00D010E0E59
:1006D0001F1EF0018081F1019081891719F44424D3
:1006E000439401C04424E02FF0E0CA018E0F9F1F05
:1006F000FC0150804524140DF1012080FC01308064
:100700002324F0012082D4CF613009F0B7CF002E2E
:100710001124F901E00DF11D2080FD01E00DF11D16
:10072000F1CF643021F4FD0101850A7A05C06530FE
:1007300021F4FD01018501650187103210F001E00F
:1007400001C000E0E6E07FC477D4D801842F4C815B
:100750000D811E81FD0120A73C9381835283638319
:100760007483458320E009C0F801E20FF31F408144
:10077000FD01E20FF31F4683239530E0E82FF0E000
:1007800037972E173F0784F3282F22508D010F5FD4
:100790001F4F6AD190E08D01080F191F20911B0196
:1007A000F8013197208320911A01F8012083839565
:1007B000FD0181A7E7E049C43DD42297D801290172
:1007C000ECE0F1E0028113814016510641F0008116
:1007D00011810F5F1F4F008311834282538200916A
:1007E0001001ECE4F0E0DFC300E0ECE0F1E00083B6
:1007F0000183FD0100A50F3F29F401E000931001E2
:1008000003E0D3C00091110110A5011719F000A554
:10081000002329F401E00093100100E0C6C002E0CB
:100820000093100101E0C1C05A924A9272E064E262
:1008300050E041E431E121E003E111E04DD10883D2
:1008400019830881003259F703E0EACF5A924A929D
:1008500070E060E050E044E631E224E08D01065DA6
:100860001F4F3AD1088319830881083439F4ECE02A
:10087000F1E0028113814016510689F662E055E0ED
:1008800043E09D018E0194D0CDCF5A924A9270E000
:1008900060E050E044E631E1FD0121A58D011CD16D
:1008A0000883198365E056E045E0EBCFCD01825B1C
:1008B0009F4F5A924A9270E060E050E044E631E285
:1008C000FC0120818D01065D1F4F06D1088319832D
:1008D00065E0FC01518146E0D4CF01E00C935A92CF
:1008E0004A9270E060E050E044E631E121E08D01A1
:1008F000F3D00883198367E059E047E0C2CF02E0F4
:100900000C935A924A9270E060E050E044E631E184
:1009100021E08D01E1D00883198368E059E048E0C7
:10092000B0CF00E0ECE0F1E000830183FD0100A521
:100930000093110101E00093100102E036C00AE0CB
:100940006FCF0881023061F45A924A9270E060E001
:1009500050E044E631E221E09A968D01BDD0EFCF20
:1009600004E05ECF5A924A9270E060E050E044E6C4
:1009700031E121E003E111E0AFD0088319836AE09F
:1009800055E044E07ECF0FEF0093120100E010E04D
:10099000ECE0F1E00083018301E00093100103E04B
:1009A000109311011FEFFD0110A72296E6E04BC343
:1009B00043D3952F862FECE0F1E0A081B18194978D
:1009C00020F00BE0009310014BC0F801518155233A
:1009D00019F44093100144C04081403319F0008164
:1009E000083511F404E0EECFD9019A96FD0104A177
:1009F00010E0F901E00FF11F01A500931D01FD01B9
:100A000004A1200F311FF90100A500931C01FD0175
:100A100014A112509D0102E052D010911001153026
:100A200031F0143021F0183011F0173019F4909390
:100A3000100116C0133021F4FD0111811131B9F3F9
:100A4000FD011081153010F0002389F71081153059
:100A500028F41181112311F4002349F78093100128
:100A6000E4E0F3C200E00895722F0024112440E076
:100A700001C043954717E0F461E00FC020E0322F3A
:100A8000212D220F20E0221F000C111C321721F013
:100A900025E030E802261326660F662351F350E066
:100AA000F801E40FF51F2081262341F321E0E7CF71
:100AB000002D00931B01012C00921A01089520E0E3
:100AC00010E002C0239513951017E0F3201711F0E2
:100AD00000E0089501E00895ABD2C801B22FA32F22
:100AE000542E452E662E772E08851985252D220F2A
:100AF00022B9E4E1F1E0208131810217130729F0E6
:100B000025812395258300831183B23008F4442482
:100B100000911601E8E6F0E046C200E000931901FA
:100B20002B2F8C01A1DFA13111F0A13269F402E079
:100B30000093160100E00093180160B801B1072985
:100B400001B904EA06BF98C0A13311F0A13441F401
:100B500002E00093160100E00093180104E4F2CFD4
:100B600001E00093160186C000E0009319012B2FCD
:100B70008C017ADF1B2F9C0102E0A1DF002349F0EA
:100B800001E00093160100931701A13229F404E952
:100B9000D9CF02E00093160104E8D4CF06B7102F96
:100BA00017FD13C000911901043068F000E00093B4
:100BB0001901A13111F0A13221F402EF00931601C5
:100BC0005BC001E0FBCF02E0F9CF00E00093190128
:100BD00001B1087FF3CF00E0009319010A2FDCD0A8
:100BE0004BC000E000931901152D0A2F4BD044C0D3
:100BF00000E00093190100931801F6CF06B7102FFB
:100C000017FD02C001EFDACF03EFD8CF01EF009359
:100C100016010FEF03B9C0CF02E00093160191CF88
:100C200000E000931901E4E1F1E0048103950483FD
:100C300002E000931601442D3A2F2B2F8C0131D066
:100C400019C000E000931901E7CF00E000931901FB
:100C500002E00093160104EC75CF00E00093190147
:100C6000E4E1F1E0048103950483442D3A2F2B2F16
:100C70008C014AD000931701E4E1F1E00281138175
:100C8000EAE0DFC122E020931601013111F4110FD7
:100C900004C0013219F4110F139513B904E806BF0B
:100CA0000895CCD1F801822F20E060911801062E22
:100CB0001124861720F0E60FF21F319708C080013B
:100CC00001501040081B1040F801E65EFE4F008105
:100CD00003B9861738F490E00296861792074CF015
:100CE000442339F0313119F404E806BF0AC004EC9A
:100CF000FCCF3131C9F704E906BF01E000931601CA
:100D000021E0022FE2E0A3C195D1D801822F932FD9
:100D1000442E00E0552420911801821750F003B1B1
:100D2000A1DE13B120911801A20FB51D11971C93DC
:100D30000BC013B130E021503040482F241B30400D
:100D4000F901E45EFE4F1083013029F402E00093C4
:100D5000160104E81DC00091180110E0E82FF0E032
:100D600032960E171F0724F003E00093160111C0FE
:100D7000081750F0442041F401E000931601539409
:100D8000913239F704E904C002E00093160104EC43
:100D900006BF052DE6E057C1013129F402E00093BA
:100DA000160104EA06C0013231F402E00093160194
:100DB00004E806BF08950133C1F3013419F408EBC8
:100DC00000931601089575D0A895EEE1F1E0208119
:100DD000318105E211E0F0DC009121010023A9F747
:100DE00001E0009321018BD0EEE1F1E0008111815F
:100DF000012B29F40091200106D00093200102E08C
:100E000000932101E1CF005009F442C00A9519F086
:100E10000A9589F145C001E010E0EEE1F1E00083C0
:100E2000118321E030E005E211E03ED90093230177
:100E300000912301013011F401E008950023E1F352
:100E4000033021F400E0009324010895043011F0F0
:100E5000023091F700E0C09901E00095017008BBF5
:100E6000EEE1F1E0068103950683009124010F363F
:100E700018F302E0089501E010E0EEE1F1E00083F4
:100E80001183009124010F36B8F202E008BBFDCFB8
:100E900001E02EE932E0EEE1F1E0208331830895B4
:100EA00000E021E0EEE1F1E02083018305BB02BB1D
:100EB0000895789401E009BF04E003BF00E002BF99
:100EC0000FE101BD01BD01E004BB01BB01D00895EC
:100ED00000E000932001009321010093220103E030
:100EE0000093230102E310E0EEE1F1E000831183BF
:100EF0001093250110934D01109324010895EEE104
:100F0000F1E000811181012B39F000811181015044
:100F1000104000831183089501E000932201089599
:100F20000A925A934A931A930A931FB70091210188
:100F3000023039F0013029F40091200140E050E006
:100F400024D000E0009321011FBF0991199149911C
:100F5000599109901895ACC00FE90DBF00E00EBF84
:100F6000C0E8D0E07BD0002309F088D02CDF11D07E
:100F7000F2CFE199FECF08954F5F5F4F4EBB5FBB4D
:100F8000F894E29AE19A0FBE08950FB6F2DF0DBB16
:100F9000F5CFE1CF7591659155914591159011FA75
:100FA000259035900895F9DF041B10E003C0F4DFAD
:100FB000041B150B20E030E005C0ECDF041B150B13
:100FC000260B370BB8F010FC17C045910590E00FC9
:100FD000F11F0417100540E02407340758F436F4D5
:100FE00004910024F101E01BF0090994E00FF11FC6
:100FF00025903590F101099411F4D6F7F1CF31968F
:101000000EF0319650E060E070E045914B3F48F0C3
:1010100089F34F3F29F04E3F11F07591659155913D
:101020004591041B150B260B370B39F318F3E7CF4B
:101030007A926A925A924A92BA93AA939A938A930C
:1010400008957F806E805D804C80BB81AA819981EC
:101050008881F0E0EC0FFD1FEF01089501E0089595
:1010600020E006D0E9F70895259102D0E9F7089528
:101070002D9301501040202F212B08958CE990E0F2
:10108000FC0105911491FC013296A591B491FC01EB
:10109000349625913491422F432B19F0F901E4DF66
:1010A00001C0DEDF069610E0883A910748F3089504
:1010B000FFCF000A00000000000000000000000058
:1010C0000000000000000000000000000000000020
:1010D0000000000000000000000000000000000010
:1010E0000000000000000000000000000000000000
:1010F00000000000000000000000000000000000F0
:1011000000000000000000000000000000000000DF
:101110000000000000000300000001010F0F0000AC
:0C112000000001000004000001000100BC
:00000001FF
:00000001FF
