:10000000D7C418951895189518951895189518959A
:100010001895189518951895189518951895189578
:10002000189518951895000016010F005B00110136
:10003000020119011E019E00EE00B900CC005F0014
:100040007E009000780086008B000100AC020B005F
:10005000530262026D02BB027B0286029B02A40273
:10006000A602AE02C3020101D703990301C0030136
:10007000AF0305DB0308E00308F00308F60308F00C
:100080000308F60310F90308F60308FD0308F60356
:1000900099E40301EB0301F703FB5600A000EA0A11
:1000A0005B00F6000000E4D4D801C9010091A00073
:1000B000E6E2F0E094C420E011E009E0C2C070E0A4
:1000C00060E050E8E1D021E08C01B9D1CCD00091C2
:1000D000C4001091C300011720E030F41CE0C1D02F
:1000E00001E00093E700AEC01DE0BBD000E0F9CF17
:1000F000F8D0C4D0EBD01AE001E0A3C070E060E01B
:1001000051E8C2D022E0E2D01BE0F6CFEAD0ABD07B
:1001100020E01EE0F1CFD2D0E9D0B9D0AFD0F3CFFC
:100120000091E700002319F0BBD0075D98D070E084
:1001300068E0A9D023E0CAD015E0DECFBFD098D0C8
:100140008C01055D8CD00093E400002371F0709168
:10015000C4009CD070E08CD006968C01FDD000933A
:10016000E40021E011E006E06CC020E011E004E0D2
:1001700068C096D00A5F73D000E00A9308E06AD0A6
:10018000AC014A5F5F4F26E08FD06FD00091C30073
:1001900007700093A20056C0E091A200F0E0E05684
:1001A000FF4F73A177D09FD000E00A9300E14ED0BB
:1001B00027E07AD00091A200102F1A951093A20088
:1001C000002319F021E018E097CF0091E50000230B
:1001D00021E011F416E090CF12E08ECF70E056D0FF
:1001E00000E00A9333D025E064D034E020E05FD013
:1001F0003CD00091C40007700093A20001E000937E
:10020000E50020C00091E600002319F422E010E090
:1002100017C020E010E000E070D000E00093E6009E
:1002200011C09D018C012AD16FD00CC08C0182D0ED
:1002300009C023E011E015D001E0F0CF23E011E088
:1002400000E05BD00091E300E4E01BC403D043EC8A
:1002500050E008950A9371E862E137E208951F4F74
:100260007BC001E04AC038D022C021E018E0F9CFBD
:1002700060E043EC50E023EA30E0089570E060E194
:1002800002D024E0089552E042E0E7CF03D003EC2F
:1002900010E062C062E040E050E020E030E008950D
:1002A00070E0F8DF8C01089504D030E024E08C0188
:1002B0003AC08C0195D047E050E0089570E0EADF45
:1002C0008C01075D1F4F48D070E008958C01B7D0B6
:1002D00003D0EDDF20E0089547E050E030E024E275
:1002E0000895ECDF03D003EA10E036C061E040E09F
:1002F00050E09C01275D3F4F08950093A0001093AC
:10030000A1002093E3000895013061F0002351F033
:10031000023029F40091A1000093A000089503E0A9
:100320000093A0000895035B1F4FF80130832183E1
:100330004283089521E02093A000F8010281023059
:1003400011F409E003C0023119F407E00093A100A1
:1003500000E00093E300089589D3080110E000E075
:100360003324C901800F931DF0E01001200E3F1EC1
:100370006623B9F4F101A081FC01B081AB1719F437
:100380004424439401C04424F0E0A42FA00FF51F9F
:10039000EA2F50804524140D8B2F8525F101808391
:1003A00015C0613019F4FC018081F8CF623071F41E
:1003B000F10180818295807F908192959F70890F55
:1003C000808380958083282E272620820395003203
:1003D00038F2103210F001E001C000E0E6E04FC357
:1003E00047D3D801832F1C813D81E02FFB2F20A70D
:1003F00003E00C938183628373831483358300E06D
:1004000009C0FA01E00FF11F2081FD01E00FF11F8B
:100410002683039510E0E82FF0E037970E171F07AB
:1004200084F3282F26D090E0A80FB91F0091F60082
:10043000FD0102930091F7000C93E6E022C318D36C
:10044000D801022F232F98960C93989703E00D93D1
:100450003C9311964D935D936D937C93159709D0C2
:100460000091F60016960D930091F7000C93E4E0CE
:1004700008C322508D010F5F1F4F08C1F5D2D8016C
:1004800029019CD041F0008111810F5F1F4F008333
:100490001183228333836090ED0077240091EC0078
:1004A000EAE4F0E09CC291D0002329F001E000933F
:1004B000EC0000E06DC07092ED0002E00093EC00F3
:1004C00001E066C05A924A9273E063ED50E04FE05B
:1004D00069D0003291F703E0F1CF87D0060D151FE8
:1004E0005CD0083411F46AD041F762E052E043E096
:1004F00014E050D0E5CF74D0060D151FFAD0912F1F
:1005000065E056E045E0FD011181F3CF6ED045D0A6
:100510002D010EE4400E571C65E0F201518146E0CA
:10052000108138D00091ED00013051F6FD0101A598
:10053000F2010083C5CF01E00C9352D0DAD001E084
:1005400019E01093EC0024C002E0F6CF3ED001E0A9
:100550000093EC0002E01CC00AE0B0CF823039F416
:1005600026D031E221E099968D01C3D0A9CF7092B7
:10057000ED0004E0A3CF1BD015D0912F6AE055E029
:1005800044E011E0B6CF27D001E0048303E0768297
:10059000E8E073C29D01092F2BC0075D1F4FA9D052
:1005A000912F089531E121E00FEE10E0A2C05A92A0
:1005B0004A9270E060E050E048EC0895E8EEF0E028
:1005C0000281138140165106089505D0FD0100A552
:1005D0000093EE000895E8EEF0E0708271820895D5
:1005E000E6DF31E121E08D010895E1DF31E2FACF6C
:1005F0003FD2952F862FE8EEF0E0A081B18194974D
:1006000018F00BE004833EC0002311F444833AC089
:100610000581011718F403950583F8CF00E00583E1
:10062000D9019A96FD0104A110E0F901E00FF11F34
:1006300000A50093F900FD0104A1F901E00FF11FED
:1006400007A10093F800FD0114A11250275D3F4F50
:1006500002E043D01091EC00153011F0143019F481
:100660009093EC000FC0133021F4FD011081113183
:10067000B9F3FD01108123A1121711F4002381F7B2
:100680008093EC00E4E0FDC100E00895722F0024A7
:10069000112440E011C020E0322F212D220F20E054
:1006A000221F000C111C321721F025E030E8022631
:1006B0001326660F21F44395471750F461E050E08C
:1006C000F801E40FF51F2081262329F321E0E4CF70
:1006D0000092F7001092F600089520E010E002C0AA
:1006E000239513951017E0F3201709F0CDCF01E003
:1006F0000895BAD1C801B22FA32F542E452E3B0125
:1007000008851985242F220F22B9E0EFF0E020811F
:1007100031810217130729F0258123952583008352
:100720001183B23008F444240091F200E6E6F0E0D0
:1007300056C17ED0A13111F0A13241F46ED060B823
:1007400001B1072901B904EA06BF5CC0A13311F069
:10075000A13419F462D004E4F7CFAFD051C068D00F
:100760001B2F9C0102E0B9DF002339F0A6D00093D3
:10077000F300A13219F404E9E7CFDFD004E8E4CFB5
:1007800006B707FD10C00091F500043050F04CD0C2
:10079000A13111F0A13219F402EF90D033C001E081
:1007A000FCCF02E0FACF40D001B1087FF6CF3CD0B9
:1007B0000A2FC5D027C038D0152D0A2F44D022C00B
:1007C00033D00093F400F8CF06B707FD02C001EF65
:1007D000E4CF03EFE2CF01EF71D00FEF03B9CECF3B
:1007E0002BD002E0028314D03BD00AC01DD0A5D08C
:1007F000AACF1AD0A2D004ECA7CF1ED009D061D0C6
:100800000093F300E0EFF0E002811381EAE035C1EC
:10081000442D3A2F2B2F8C01089502E00093F20013
:1008200000E00093F400089500E00093F5000895BF
:10083000FBDF2B2F8C012ACFF7DFE0EFF0E0048104
:1008400003950483089522E02093F200110F0131F3
:1008500019F0013211F4139513B904E806BF089595
:1008600009D1F801622F00E02091F400621728F00E
:10087000E20FF01F129113B912C0822F90E001977E
:10088000861B9040FC01EA50FF4F108113B9862F60
:1008900090E00296821790404CF0442339F03131B9
:1008A00019F414E816BF07C014ECFCCF3131C9F7B6
:1008B00004E906BF02D0E2E0E6C001E00093F200E6
:1008C0000895D4D0D801C901542E44240091F400D5
:1008D000801768F003B1D8DE13B12091F400A20FA5
:1008E000B41D1E93013069F428D004E822C043B13E
:1008F00010E001501040021B1040F801E850FF4F7B
:1009000040830091F40010E0E82FF0E032960E17DB
:100910001F071CF003E0D2DF0DC0081740F0552080
:1009200031F4CBDF4394913201F704E902C005D0E2
:1009300004EC06BF042DE6E0A2C002E0BFCF013107
:1009400019F4FBDF04EA04C0013219F4F6DF04E80D
:1009500085CF0133D9F3013411F408EBAFDF0895EB
:10096000EAEFF0E02081318101E011E087DD0093C2
:1009700000010091FC0003D00093FC0008950023C7
:10098000A1F421E031E0EAEFF0E0008111818BDB9E
:100990000093FF00002311F410E007C0023011F4AF
:1009A00011E003C00330C1F712E0012F08959CC08D
:1009B0000FE90DBF00E00EBFC0E8D0E06BD0002310
:1009C00009F078D0CDDF01D0F2CFF1CF75916591EC
:1009D00055914591159011FA259035900895F9DFBC
:1009E000041B10E003C0F4DF041B150B20E030E013
:1009F00005C0ECDF041B150B260B370BB8F010FC01
:100A000017C045910590E00FF11F0417100540E055
:100A10002407340758F436F404910024F101E01B54
:100A2000F0090994E00FF11F25903590F101099428
:100A300011F4D6F7F1CF31960EF0319650E060E028
:100A400070E045914B3F48F089F34F3F29F04E3F0E
:100A500011F07591659155914591041B150B260B6D
:100A6000370B39F318F3E7CF7A926A925A924A9287
:100A7000BA93AA939A938A9308957F806E805D803B
:100A80004C80BB81AA8199818881F0E0EC0FFD1F29
:100A9000EF01089501E0089520E006D0E9F70895F8
:100AA000259102D0E9F708952D9301501040202F91
:100AB000212B08958AE990E0FC0105911491FC0135
:100AC0003296A591B491FC01349625913491422F30
:100AD000432B19F0F901E4DF01C0DEDF069610E0D8
:100AE000863A910748F30895FFCF000900000000FF
:100AF00000000000000000000000000000000000F6
:100B000000000000000000000000000000000000E5
:100B100000000000000000000000000000000000D5
:100B200000000000000000000000000000020000C3
:100B300000010000000001000004000001000100AD
:00000001FF
:00000001FF
