:10000000F5C7189518951895189518951895189579
:100010001895D0C71895189518951895189518958E
:1000200018951895189501005C040B00B503D003D2
:10003000E0037104020417043B044C044E045E0404
:10004000820400005D050F00EA04580555056A05A5
:10005000FA04FD0408051E0534053F052905EE04D4
:100060005D0513054A0501015D06FF050140060116
:100070002606056306086A060882060893060882B3
:1000800006089306109706089306089F060893062D
:10009000997006017806017E06FB1100A00046114A
:1000A0005B00B100000012D8D80101E098960C93D3
:1000B000989703E00C930BE011960C93119702E1D3
:1000C00012960C93129700E013960C93139705E089
:1000D00014960C93149700E015960C9315971696AA
:1000E0000C93169717960C93179718960C931897CE
:1000F00019960C93199729E08D010F5F1F4F26D594
:100100000091B1001A960C931A970091B2001B96B9
:100110000C93E4E0E4C7DAD7D80102E098960C9398
:10012000989703E00C930BE011960C93119702E162
:1001300012960C93129700E013960C93139706E017
:1001400014960C93149700E015960C931597169639
:100150000C93169717960C93179718960C9318975D
:1001600019960C93199729E08D010F5F1F4FEED45C
:100170000091B1001A960C931A970091B2001B9649
:100180000C93E4E0ACC7A2D7D80103E098960C9397
:1001900098970C9307E011960C93119707E112962C
:1001A0000C93129700E813960C93139700E01496A3
:1001B0000C93149715960C93159725E08D010F5FFE
:1001C0001F4FC4D40091B10016960C93169700915E
:1001D000B20017960C93E4E082C778D7D80104E008
:1001E00098960C93989703E00C9307E011960C9364
:1001F000119702E012960C93129700E813960C9355
:10020000139700E014960C93149715960C9315977A
:1002100025E08D010F5F1F4F99D40091B100169614
:100220000C9316970091B20017960C93E4E057C711
:100230004DD7D80105E098960C93989703E00C935E
:1002400007E211960C93119702E112960C93129704
:1002500002E013960C93139700E014960C931497F6
:1002600015960C93159716960C93169704E017960F
:100270000C9317970DEF18960C9318970EE019969C
:100280000C93199708ED1A960C931A9705EB1B9689
:100290000C931B9708E41C960C931C970EEA1D9672
:1002A0000C931D9704E01E960C931E9700E01F967A
:1002B0000C931F9709EF50960C9350970AE05196B4
:1002C0000C9351970CED52960C93529701EB539669
:1002D0000C9353970CE454960C9354970AEA559652
:1002E0000C9355970EE056960C9356970AE0579646
:1002F0000C93579703EF58960C93589700E0599634
:100300000C93599706ED5A960C935A970BEB5B9604
:100310000C935B9706E45C960C935C9700EA5D9601
:100320000C935D9705EB5E960C935E9701EB5F96E1
:100330000C935F9708E490960C9390970BEB919633
:100340000C9391970DE692960C93929700E09396FA
:100350000C9393970DEF94960C9394970BE19596CD
:100360000C93959720E28D010A5F1F4FD0D025E2B4
:100370008D010F5F1F4FEAD30091B10096960C9349
:1003800096970091B20097960C93E4E0A8C69ED68B
:10039000D80106E0FD0100A703E00C9307E201830A
:1003A00002E1028302E0038308E0048300E00583A6
:1003B00020E28D01015D1F4FAAD0FD0103A5068338
:1003C00014A504E01027178315A50DEF102710873B
:1003D00016A50EE01027118717A508ED1027128724
:1003E00010A905EB1027138711A908E4102714871B
:1003F00012A90EEA1027158713A904E01027168703
:1004000004A9078715A909EF1027108B16A90AE080
:100410001027118B17A90CED1027128B10AD01EBD3
:100420001027138B11AD0CE41027148B12AD0AEAC0
:100430001027158B13AD0EE01027168BFC9610813C
:100440000AE01027FD01178BFD96108103EF10279E
:10045000FD01108FFE960081FD01018FFF96108136
:1004600006ED10275A961C935A9711810BEB102713
:100470005B961C935B97128106E410275C961C9395
:100480005C97138100EA10275D961C935D97148199
:1004900005EB10275E961C935E97158101EB1027E4
:1004A0005F961C935F97168108E4102790961C9323
:1004B000909717810BEB102791961C9391971085BD
:1004C0000DE6102792961C939297018593960C93B4
:1004D000939712850DEF102794961C93949713858C
:1004E0000BE11027FD0115A320E28D010A5F1F4FCC
:1004F0000ED025E28D010F5F1F4F28D30091B10070
:10050000FD0106A30091B20007A3E4E0E8C540E0C6
:1005100010C050E0F801E40FF51F50815295507F54
:10052000308132953F70530F508330813095308346
:100530004395421770F30895C9D5D80107E09896FE
:100540000C93989703E00C9307E211960C93119784
:1005500002E012960C93129702E113960C931397F4
:1005600000E114960C93149700E015960C931597E0
:1005700016960C93169704E017960C9317970DEFA9
:1005800018960C9318970EE019960C93199708ED8E
:100590001A960C931A9705EB1B960C931B9708E47D
:1005A0001C960C931C970EEA1D960C931D9700E069
:1005B0001E960C931E9702E01F960C931F970EE752
:1005C00050960C93509707E051960C9351970CE678
:1005D00052960C9352970AE553960C93539704E264
:1005E00054960C93549707E555960C93559700E055
:1005F00056960C93569708E057960C9357970AEF28
:1006000058960C9358970CE159960C93599700EB18
:100610005A960C935A970AE65B960C935B9700E9FF
:100620005C960C935C970CE55D960C935D9700E0EF
:100630005E960C935E9701E05F960C935F970FE3D5
:1006400090960C93909703E091960C93919706E304
:1006500092960C9392970DE293960C93939702E1E6
:1006600094960C9394970BE295960C93959725E2AC
:100670008D010F5F1F4F6AD20091B10096960C93C7
:1006800096970091B20097960C93E4E028C51ED58A
:10069000D80108E098960C93989703E00C9307E034
:1006A00011960C93119707E112960C93129701E89B
:1006B00013960C93139700E014960C9314971596C9
:1006C0000C93159725E08D010F5F1F4F3FD20091CE
:1006D000B10016960C9316970091B20017960C93E2
:1006E000E4E0FDC4F3D4D80109E098960C93989700
:1006F00003E00C9307E011960C93119702E0129619
:100700000C93129700E013960C93139705E114963F
:100710000C93149700E015960C93159725E08D0126
:100720000F5F1F4F13D20091B10016960C931697CE
:100730000091B20017960C93E4E0D1C4C5D4D8015F
:100740002901E0EAF0E0028113814016510641F0F0
:10075000008111810F5F1F4F0083118342825382FA
:100760000091A400E6E2F0E068C400E0E0EAF0E016
:10077000008301830091A600FD0110A5011719F067
:1007800000A5002329F401E00093A40000E0C6C006
:1007900000E00093A50002E00093A40001E0BEC0C9
:1007A0005A924A9273E063ED50E04AEA31E121E067
:1007B00007EA10E003D2C801803269F703E0ECCF0A
:1007C0005A924A9270E060E050E048EC31E221E059
:1007D0000090A5008D01000D151F075D1F4FEED184
:1007E000C801883439F4E0EAF0E002811381401650
:1007F000510689F662E052E043E014E09D01092FC2
:100800008FD0CCCF5A924A9270E060E050E048EC32
:1008100031E121E00090A5008D01000D151FCED122
:10082000C80165E056E045E0FD011181E7CF5A922D
:100830004A9270E060E050E048EC31E221E08D0146
:10084000075D1F4FBBD1C8012D010EE4400E00E033
:10085000501E65E0F201518146E010819D01092F93
:100860005FD00091A500013009F098CFFD0101A5EE
:10087000F201008393CF01E00C935A924A9270E008
:1008800060E050E048EC31E121E08D0197D101E0DA
:1008900019E01093A40042C002E0EECF00E0E0EACD
:1008A000F0E000830183FD0100A50093A60001E0B4
:1008B0000093A40002E032C00AE06ECF823061F4FF
:1008C0005A924A9270E060E050E048EC31E221E058
:1008D00099968D0173D162CF00E00093A50004E0EA
:1008E0005BCF5A924A9270E060E050E048EC31E110
:1008F00021E007EA10E062D1C8016AE055E044E077
:1009000011E07CCF00E010E0E0EAF0E0008301833A
:1009100001E00093A40003E01093A600E6E0DDC32D
:10092000D5D3952F862FE0EAF0E0A081B18194978E
:1009300020F00BE00093A40043C0002319F440937F
:10094000A4003EC041F00091A500011720F40581EC
:1009500003950583F4CF00E00093A500D9019A9692
:10096000FD0104A110E0F901E00FF11F00A50093C3
:10097000B400FD0104A1F901E00FF11F07A10093EC
:10098000B300FD0114A11250275D3F4F02E009D1D1
:100990001091A400153011F0143019F49093A400B4
:1009A0000FC0133021F4FD0110811131B9F3FD01A5
:1009B000108123A1121711F4002381F78093A40062
:1009C000E4E08DC383D3C801D9010091A800E2E41B
:1009D000F0E033C320E011E00BE07FC08C0182DE49
:1009E00047E050E034E020E08C01A7D020E014E0A4
:1009F00001E073C08C018FD071C08C0154DB47E0E3
:100A000050E034E020E08C0198D020E016E0F0CFF8
:100A10008C0181DB47E050E034E020E08C018DD098
:100A200020E01DE0E5CF8C01AEDB47E050E034E094
:100A300020E08C0182D020E017E0DACF8C01F8DBD7
:100A400047E050E034E020E08C0177D020E01AE06D
:100A5000CFCF8C01C2DB47E050E034E220E08C01D4
:100A60006CD020E018E0C4CF8C0191DC47E050E06E
:100A700034E020E08C0161D020E019E0B9CF8C0196
:100A80005BDD47E050E034E020E08C0156D020E010
:100A90001EE0AECF8C01FBDD47E050E034E020E00B
:100AA0008C014BD020E012E0A3CF21E010E014C075
:100AB0009D018C0143DE1DD011C001E0401619F4E8
:100AC00020E01BE00AC003E0401609F083CF20E0DD
:100AD00011E003C022E011E000E004D00091AA0080
:100AE000E4E0FDC20093A8001093A9002093AA009F
:100AF000089510E01093AA00013061F0002351F036
:100B0000023029F40091A9000093A800089503E0A1
:100B10000093A800089520E02093AA00F80123A5DF
:100B2000253511F405E004C004A5053521F407E0DE
:100B30000093A800089502E0FBCF035B1F4FF8016C
:100B4000308321834283089500E00895722F0024AA
:100B5000112440E001C043954717E0F461E00FC065
:100B600020E0322F212D220F20E0221F000C111C2B
:100B7000321721F025E030E802261326660F66239F
:100B800051F350E0F801E40FF51F2081262341F3D3
:100B900021E0E7CF002D0093B200012C0092B100BC
:100BA000089520E010E002C0239513951017E0F39C
:100BB000201711F000E0089501E0089583D2C801E4
:100BC000B22FA32F542E452E662E772E0885198519
:100BD000252D220F22B9EBEAF0E0208131810217A6
:100BE000130729F025812395258300831183B230D3
:100BF00008F444240091AD00E6E6F0E01EC200E0F7
:100C00000093B0002B2F8C01A1DFA13111F0A13294
:100C100069F402E00093AD0000E00093AF0060B81B
:100C200001B1072901B904EA06BF98C0A13311F048
:100C3000A13441F402E00093AD0000E00093AF0066
:100C400004E4F2CF01E00093AD0086C000E0009321
:100C5000B0002B2F8C017ADF1B2F9C0102E0A1DF5B
:100C6000002349F001E00093AD000093AE00A132F3
:100C700029F404E9D9CF02E00093AD0004E8D4CF11
:100C800006B7102F17FD13C00091B000043068F0B4
:100C900000E00093B000A13111F0A13221F402EF85
:100CA0000093AD005BC001E0FBCF02E0F9CF00E0B4
:100CB0000093B00001B1087FF3CF00E00093B000D3
:100CC0000A2FDCD04BC000E00093B000152D0A2F96
:100CD0004BD044C000E00093B0000093AF00F6CFCB
:100CE00006B7102F17FD02C001EFDACF03EFD8CF00
:100CF00001EF0093AD000FEF03B9C0CF02E0009306
:100D0000AD0091CF00E00093B000EBEAF0E0048189
:100D10000395048302E00093AD00442D3A2F2B2F5E
:100D20008C0131D019C000E00093B000E7CF00E0A3
:100D30000093B00002E00093AD0004EC75CF00E03A
:100D40000093B000EBEAF0E0048103950483442DA6
:100D50003A2F2B2F8C014AD00093AE00EBEAF0E043
:100D600002811381EAE0B7C122E02093AD00013196
:100D700011F4110F04C0013219F4110F139513B9B6
:100D800004E806BF0895A4D1F801822F20E0609105
:100D9000AF00062E1124861720F0E60FF21F3197C0
:100DA00008C0800101501040081B1040F801EF54AA
:100DB000FF4F008103B9861738F490E0029686173A
:100DC00092074CF0442339F0313119F404E806BF9E
:100DD0000AC004ECFCCF3131C9F704E906BF01E0D9
:100DE0000093AD0021E0022FE2E07BC16DD1D8017C
:100DF000822F932F442E00E055242091AF008217BC
:100E000050F003B1A1DE13B12091AF00A20FB51DC8
:100E100011971C930BC013B130E021503040482F84
:100E2000241B3040F901ED54FF4F1083013029F4A9
:100E300002E00093AD0004E81DC00091AF0010E097
:100E4000E82FF0E032960E171F0724F003E000931E
:100E5000AD0011C0081750F0442041F401E00093A8
:100E6000AD005394913239F704E904C002E00093D5
:100E7000AD0004EC06BF052DE6E02FC1013129F4D9
:100E800002E00093AD0004EA06C0013231F402E052
:100E90000093AD0004E806BF08950133C1F30134A7
:100EA00019F408EB0093AD00089565D0A895E5EB23
:100EB000F0E0208131810CEB10E040DC0093BB00BE
:100EC0000091B800002399F701E00093B80061D0C9
:100ED000E5EBF0E000811181012B29F40091B700CE
:100EE00006D00093B70002E00093B800DFCF0050B7
:100EF00029F00A9511F10A9551F134C0E5EBF0E0C3
:100F0000208131810CEB10E05DDD0093BA0001E03F
:100F100010E0E5EBF0E00083118315BB12BB0091FC
:100F2000BA00002311F400E00895013011F401E04B
:100F300008950230C1F702E0089500E02EE932E0A2
:100F4000E5EBF0E02083318311E015BB12C000E037
:100F50002EE932E0E5EBF0E02083318311E012BBB3
:100F600005BB089500E021E0E5EBF0E0208301837C
:100F700005BB02BB0895789401E009BF04E003BFFC
:100F800000E002BF0AE101BD01BD01E004BB01BBFD
:100F90000895E5EBF0E000811181012B39F000812B
:100FA00011810150104000831183089501E00093E6
:100FB000B90008950A925A934A931A930A931FB755
:100FC0000091B800023039F0013029F40091B700E7
:100FD00040E050E024D000E00093B8001FBF09912A
:100FE00019914991599109901895ACC00FE90DBF1D
:100FF00000E00EBFC0E8D0E07BD0002309F088D02D
:1010000054DF11D0F2CFE199FECF08954F5F5F4FCB
:101010004EBB5FBBF894E29AE19A0FBE08950FB6FB
:10102000F2DF0DBBF5CFE1CF7591659155914591FB
:10103000159011FA259035900895F9DF041B10E002
:1010400003C0F4DF041B150B20E030E005C0ECDF2B
:10105000041B150B260B370BB8F010FC17C045917D
:101060000590E00FF11F0417100540E02407340736
:1010700058F436F404910024F101E01BF0090994BE
:10108000E00FF11F25903590F101099411F4D6F786
:10109000F1CF31960EF0319650E060E070E045916E
:1010A0004B3F48F089F34F3F29F04E3F11F07591C7
:1010B000659155914591041B150B260B370B39F3A0
:1010C00018F3E7CF7A926A925A924A92BA93AA9305
:1010D0009A938A9308957F806E805D804C80BB8157
:1010E000AA8199818881F0E0EC0FFD1FEF0108953E
:1010F00001E0089520E006D0E9F70895259102D097
:10110000E9F708952D9301501040202F212B0895C9
:101110008AE990E0FC0105911491FC013296A591B9
:10112000B491FC01349625913491422F432B19F050
:10113000F901E4DF01C0DEDF069610E0863A910790
:1011400048F30895FFCF0000000001000004000BE9
:071150000000000100010096
:00000001FF
:00000001FF
