:1000000048C018951895189518951895189518952D
:100010001895189518951895189518951895189578
:100020001895189518950400A000000044E050E0D1
:100030002AE030E000EA10E03CD001E001BB02BB66
:100040000FEF1CD000E002BB0091A000002331F4B0
:100050000091A3000A3011F401E002BB089521973A
:1000600007C018811A95188318811123D1F70A95B2
:10007000002311F01CE1F7CF219608958A93802F79
:1000800003C008E6ECDF8A958823D9F789910895A3
:1000900041C00FE90DBF00E00EBFC0E8D0E007D0BF
:1000A000002309F01DD0C2DF01D0F2CFF1CF01E073
:1000B0000895F80103C0219341505040342F352B4F
:1000C000D1F7089520E006D0E9F70895259102D0F0
:1000D000E9F708952D9301501040202F212B08950A
:1000E00086E290E0FC0105911491FC013296A59105
:1000F000B491FC01349625913491422F432B19F091
:10010000F901E4DF01C0DEDF069610E08C329107D2
:0601100048F30895FFCF43
:00000001FF
:00000001FF
