:10000000D6C7189518951895189518951895189598
:100010001895B1C7189518951895189518951895AD
:1000200018951895189501002E040B007F039F0367
:10003000B5034104D403E503FC030E04200430049B
:100040005204000026050F00C90421051C053405D3
:10005000DB04DE04E804F30407051105FD04D00405
:100060002605F2041B0501012906CE05010D060136
:10007000F505052F06083606084E06085C06084EEC
:1000800006085C06106206086706086C06085C062F
:10009000993C06014406014A06FB1100A000081124
:1000A0005A00B1000000F3D7D80101E098960C93F4
:1000B00098970CE099960C93999703E00C930BE0BA
:1000C00011960C93119702E112960C93129700E08F
:1000D00013960C93139705E014960C93149700E075
:1000E00015960C93159716960C93169717960C93D6
:1000F000179718960C93189719960C93199729E04F
:100100008D010F5F1F4FF1D40091B2001A960C932E
:100110001A970091B1001B960C93E4E0C1C7B7D7C2
:10012000D80102E098960C9398970CE099960C935E
:10013000999703E00C930BE011960C93119702E151
:1001400012960C93129700E013960C93139706E007
:1001500014960C93149700E015960C931597169629
:100160000C93169717960C93179718960C9318974D
:1001700019960C93199729E08D010F5F1F4FB5D485
:100180000091B2001A960C931A970091B1001B9639
:100190000C93E4E085C77BD7D80104E098960C93D4
:1001A000989708E099960C93999703E00C9307E0D1
:1001B00011960C93119702E012960C93129700E897
:1001C00013960C93139700E014960C9314971596BE
:1001D0000C93159725E08D010F5F1F4F86D400917A
:1001E000B20016960C9316970091B10017960C93D7
:1001F000E4E056C74CD7D80105E098960C93989741
:1002000008E299960C93999703E00C9307E21196F4
:100210000C93119702E112960C93129702E8139631
:100220000C93139700E014960C93149715960C9367
:10023000159716960C93169704E017960C9317973C
:100240000DEF18960C9318970EE019960C931997CA
:1002500008ED1A960C931A9705EB1B960C931B97B7
:1002600008E41C960C931C970EEA1D960C931D97A0
:1002700004E01E960C931E9700E01F960C931F97A8
:1002800009EF50960C9350970AE051960C935197B2
:100290000CED52960C93529701EB53960C93539797
:1002A0000CE454960C9354970AEA55960C93559780
:1002B0000EE056960C9356970AE057960C93579774
:1002C00003EF58960C93589700E059960C93599762
:1002D00006ED5A960C935A970BEB5B960C935B9733
:1002E00006E45C960C935C9700EA5D960C935D9730
:1002F00005EB5E960C935E9701EB5F960C935F9710
:1003000008E490960C9390970BEB91960C93919731
:100310000DE692960C93929700E093960C93939728
:100320000DEF94960C9394970BE195960C939597FB
:1003300020E28D010A5F1F4FD2D025E28D010F5FB1
:100340001F4FD3D30091B20096960C9396970091CD
:10035000B10097960C93E4E0A3C699D6D80106E0C5
:10036000FD0100A708E201A703E00C9307E2018367
:1003700002E1028302E8038308E0048300E00583CE
:1003800020E28D01055D1F4FAAD0FD0103A5068364
:1003900014A504E01027178315A50DEF102710876B
:1003A00016A50EE01027118717A508ED1027128754
:1003B00010A905EB1027138711A908E4102714874B
:1003C00012A90EEA1027158713A904E01027168733
:1003D00004A9078715A909EF1027108B16A90AE0B1
:1003E0001027118B17A90CED1027128B10AD01EB04
:1003F0001027138B11AD0CE41027148B12AD0AEAF1
:100400001027158B13AD0EE01027168BFC9610816C
:100410000AE01027FD01178BFD96108103EF1027CE
:10042000FD01108FFE960081FD01018FFF96108166
:1004300006ED10275A961C935A9711810BEB102743
:100440005B961C935B97128106E410275C961C93C5
:100450005C97138100EA10275D961C935D971481C9
:1004600005EB10275E961C935E97158101EB102714
:100470005F961C935F97168108E4102790961C9353
:10048000909717810BEB102791961C9391971085ED
:100490000DE6102792961C939297018593960C93E4
:1004A000939712850DEF102794961C9394971385BC
:1004B0000BE11027FD0115A320E28D010A5F1F4FFC
:1004C0000ED025E28D010F5F1F4F0FD30091B200B8
:1004D000FD0106A30091B10007A3E4E0E1C540E0FF
:1004E00010C050E0F801E40FF51F50815295507F85
:1004F000308132953F70530F508330813095308377
:100500004395421770F30895C2D5D80107E0989635
:100510000C93989708E299960C93999703E00C93A3
:1005200007E211960C93119702E012960C93129722
:1005300002E813960C93139700E114960C9314970A
:1005400000E015960C93159716960C93169704E0F9
:1005500017960C9317970DEF18960C9318970EE0BB
:1005600019960C93199708ED1A960C931A9705EBA8
:100570001B960C931B9708E41C960C931C970EEA91
:100580001D960C931D9700E01E960C931E9707E591
:100590001F960C931F970EE750960C93509707E009
:1005A00051960C9351970CE652960C9352970AE58C
:1005B00053960C93539704E254960C93549707E583
:1005C00055960C93559700E056960C93569708E075
:1005D00057960C9357970AEF58960C9358970CE13F
:1005E00059960C93599700EB5A960C935A970AE632
:1005F0005B960C935B9700E95C960C935C970CE51B
:100600005D960C935D9700E05E960C935E9701E01B
:100610005F960C935F970FE390960C93909703E08F
:1006200091960C93919706E392960C9392970DE214
:1006300093960C93939702E194960C9394970BE204
:1006400095960C93959725E28D010F5F1F4F4DD224
:100650000091B20096960C9396970091B1009796F0
:100660000C93E4E01DC513D5D80109E098960C93CE
:10067000989708E099960C93999703E00C9307E0FC
:1006800011960C93119702E012960C93129700E0CA
:1006900013960C93139705E114960C93149700E0AE
:1006A00015960C93159725E08D010F5F1F4F1DD2F6
:1006B0000091B20016960C9316970091B100179610
:1006C0000C93E4E0EDC420E0F80120A70895DDD408
:1006D0002297D8012901E0EAF0E002811381401657
:1006E000510641F0008111810F5F1F4F008311837C
:1006F000428253820091A400E6E2F0E07FC400E071
:10070000E0EAF0E000830183FD0100A50F3F29F43A
:1007100001E00093A40003E0D7C00091A50010A55C
:10072000011719F000A5002329F401E00093A400AB
:1007300000E0CAC002E00093A40001E0C5C05A92E4
:100740004A9272E064E250E041E431E121E007EADC
:1007500010E003D2088319830881003259F7009111
:10076000A6000F3F39F703E0E6CF5A924A9270E0B5
:1007700060E050E044E631E224E08D01065D1F4F69
:10078000ECD1088319830881083439F4E0EAF0E0F9
:10079000028113814016510669F662E055E043E09C
:1007A0009D018E0194D0C9CF5A924A9270E060E0C8
:1007B00050E044E631E1FD0121A58D01CED1088351
:1007C000198365E056E045E0EBCFCD01825B9F4F9A
:1007D0005A924A9270E060E050E044E631E2FC0157
:1007E00020818D01065D1F4FB8D10883198365E014
:1007F000FC01518146E0D4CF01E00C935A924A9219
:1008000070E060E050E044E631E121E08D01A5D1E7
:100810000883198367E059E047E0C2CF02E00C93F8
:100820005A924A9270E060E050E044E631E121E003
:100830008D0193D10883198368E059E048E0B0CF77
:1008400000E0E0EAF0E000830183FD0100A50093F1
:10085000A50001E00093A40002E036C00AE06BCFDF
:100860000881023061F45A924A9270E060E050E0F0
:1008700044E631E221E09A968D016FD1EFCF04E09A
:100880005ACF5A924A9270E060E050E044E631E17B
:1008900021E007EA10E061D1088319836AE055E09E
:1008A00044E07ECF0FEF0093A60000E010E0E0EA06
:1008B000F0E00083018301E00093A40003E01093C3
:1008C000A5001FEFFD0110A72296E6E0E7C3DFD3E6
:1008D000952F862FE0EAF0E0A081B181949720F077
:1008E0000BE00093A4004BC0F8015181552319F48B
:1008F0004093A40044C04081403319F00081083582
:1009000011F404E0EECFD9019A96FD0104A110E0A4
:10091000F901E00FF11F01A50093B400FD0104A14E
:10092000200F311FF90100A50093B300FD0114A1B0
:1009300012509D0102E004D11091A400153031F055
:10094000143021F0183011F0173019F49093A400EE
:1009500016C0133021F4FD0111811131B9F3FD01ED
:100960001081153010F0002389F71081153028F41C
:100970001181112311F4002349F78093A400E4E0CE
:100980008FC385D3C801D9010091A800E2E4F0E04B
:1009900035C320E011E00BE071D08C0194DE6AC019
:1009A0008C0161DE47E050E027E08C0196D020E02A
:1009B00014E001E05EC08C017ED05CC08C0173DB72
:1009C00047E050E024E08C0188D020E016E0F1CF31
:1009D0008C01A5DB47E050E024E08C017ED020E0D4
:1009E0001DE0E7CFFFCF8C0105DC47E050E024E0BD
:1009F0008C0173D020E01AE0DCCF8C01CCDB47E027
:100A000050E023E28C0169D020E018E0D2CF8C01C5
:100A1000A4DC47E050E024E08C015FD020E019E046
:100A2000C8CF8C0171DD47E050E024E08C0155D047
:100A300020E01EE0BECFFFCF8C0145DE21E010E0BC
:100A400017C09D018C0143DE20D014C001E0401688
:100A500019F420E01BE00DC003E0401620E011E097
:100A600009F49ACF00E098CF8C012DDE22E011E04E
:100A700000E004D00091AA00E4E012C30093A800B3
:100A80001093A9002093AA00089510E01093AA00E3
:100A9000013081F0023011F0002319F40091A90017
:100AA00003C0033021F403E00093A800089501E09F
:100AB0000093A800089520E02093AA00F80126A53D
:100AC000253511F405E004C005A5053521F407E03E
:100AD0000093A800089502E0FBCF025B1F4FF801CE
:100AE00020834183089500E00895722F002411248B
:100AF00040E001C043954717E0F461E00FC020E0FB
:100B0000322F212D220F20E0221F000C111C321742
:100B100021F025E030E802261326660F662351F304
:100B200050E0F801E40FF51F2081262341F321E076
:100B3000E7CF002D0093B200012C0092B100089580
:100B400020E010E002C0239513951017E0F3201762
:100B500011F000E0089501E0089595D2C801B22F88
:100B6000A32F742E452E562E672E08851985272D06
:100B7000220F22B9EBEAF0E020813181021713073E
:100B800029F025812395258300831183B23008F451
:100B900044240091AD00E6E6F0E030C200E00093AE
:100BA000B0002B2F8C01A1DFA13111F0A13269F42B
:100BB00012E000E0A4D000E00093AF0050B801B113
:100BC000062901B904EA06BF94C0A13311F0A1348B
:100BD00041F412E000E093D000E00093AF0004E4A1
:100BE000F2CF11E001E08BD084C000E00093B000B0
:100BF0002B2F8C017ADF1B2F9C0102E0A1DF002349
:100C000039F011E001E07BD0A13229F404E9DBCF17
:100C100012E000E074D004E8D6CF06B7102F17FD1D
:100C200012C00091B000043058F000E00093B00012
:100C3000A13111F0A13211F412EFD5CF11E0D3CFD1
:100C400012E000E0D0CF00E00093B00011B1187FB7
:100C5000CACF00E00093B0000A2FE0D04AC000E005
:100C60000093B000172D0A2F54D0EACF00E0009374
:100C7000B0000093AF00F6CF06B7102F17FD02C0EB
:100C800011EFDFCF13EFDDCF11EF00E038D00FEF22
:100C900003B9C1CF12E000E032D094CF00E000935E
:100CA000B000EBEAF0E0048103950483442D3A2F71
:100CB0002B2F8C013AD01DC000E00093B00004EA55
:100CC00006BFBECF00E00093B00004ECF9CF00E017
:100CD0000093B00012E0E0CF00E00093B000EBEA38
:100CE000F0E0048103950483442D3A2F2B2F8C01CF
:100CF0004ED0EBEAF0E002811381EAE0CDC100239F
:100D000011F001E001C000E00093AE001093AD00CF
:100D10000895013111F4110F04C0013219F4110FBB
:100D2000139513B904E806BF0895B3D1F801609193
:100D3000AF00062E1124261720F0E60FF11D319783
:100D400008C0C0010197022F801B9040FC01EF54A6
:100D5000FF4F008103B9261740F4822F90E00296DE
:100D6000861791055CF0442349F0313129F404E8F9
:100D700006BF12E000E008C004ECFACF3131B9F749
:100D800004E906BF11E001E0BADFE2E08BC17ED1E9
:100D9000D801822F932F442E00E02091AF008217BC
:100DA00058F003B1A0DE13B12091AF0030E0A20FE4
:100DB000B31F11971C930BC013B130E0215030408A
:100DC000482F241B3040F901ED54FF4F10830130B0
:100DD00031F412E000E093DF04E806BF1DC000918B
:100DE000AF0010E0E82FF0E032960E171F0714F066
:100DF00013E010C0081758F0442049F4913229F448
:100E000004E906BF11E001E006C004E8FACF04ECF3
:100E100006BF12E000E073DFE5E041C1013129F4D3
:100E200012E000E06CDF04EA06C0013231F412E0A7
:100E300000E065DF04E806BF08950133C1F3013423
:100E400019F418EB00E05BDF089561D0A895E5EB9D
:100E5000F0E0208131810BEB10E039DC0091B8002B
:100E60000023A9F701E00093B80074D0E5EBF0E0AF
:100E700000811181012B29F40091B70006D0009365
:100E8000B70002E00093B800E1CF005029F00A95C6
:100E900009F10A9541F133C0E5EBF0E020813181A1
:100EA0000BEB10E06EDD0093BA0001E010E0E5EB23
:100EB000F0E00083118302BB0091BA00002311F41B
:100EC00000E00895013011F401E008950230C1F707
:100ED00002E0089500E02EE932E0E5EBF0E0208347
:100EE000318332BB089500E02EE932E0E5EBF0E01B
:100EF0002083318311E017BB18BB12BB089500E0BB
:100F000021E0E5EBF0E02083018322BB0895789493
:100F100001E009BF04E003BF00E002BF0FE101BD33
:100F200001BD03E001BB01D0089500E00093B700CC
:100F30000093B8000093B90001E00093BA0002E307
:100F400010E0E5EBF0E0008311831093BB001093F9
:100F5000E3000895E5EBF0E000811181012B39F009
:100F6000008111810150104000831183089501E038
:100F70000093B90008950A925A934A931A930A93D8
:100F80001FB70091B800023039F0013029F4009108
:100F9000B70040E050E024D000E00093B8001FBF4D
:100FA000099119914991599109901895ACC00FE98F
:100FB0000DBF00E00EBFC0E8D0E07BD0002309F0F9
:100FC00088D043DF11D0F2CFE199FECF08954F5F73
:100FD0005F4F4EBB5FBBF894E29AE19A0FBE089553
:100FE0000FB6F2DF0DBBF5CFE1CF7591659155914D
:100FF0004591159011FA259035900895F9DF041B5D
:1010000010E003C0F4DF041B150B20E030E005C046
:10101000ECDF041B150B260B370BB8F010FC17C0C8
:1010200045910590E00FF11F0417100540E02407DB
:10103000340758F436F404910024F101E01BF00960
:101040000994E00FF11F25903590F101099411F4F6
:10105000D6F7F1CF31960EF0319650E060E070E0B7
:1010600045914B3F48F089F34F3F29F04E3F11F037
:101070007591659155914591041B150B260B370B06
:1010800039F318F3E7CF7A926A925A924A92BA9356
:10109000AA939A938A9308957F806E805D804C8096
:1010A000BB81AA8199818881F0E0EC0FFD1FEF01DF
:1010B000089501E0089520E006D0E9F7089525910C
:1010C00002D0E9F708952D9301501040202F212BD5
:1010D00008958AE990E0FC0105911491FC01329693
:1010E000A591B491FC01349625913491422F432B64
:1010F00019F0F901E4DF01C0DEDF069610E0863A60
:10110000910748F30895FFCF00000000010000049C
:09111000000B00000001000100C9
:00000001FF
:00000001FF
