:1000000034C0189518951895189518951895189541
:100010001895189518951895189518951895189578
:1000200018951895189506008D0000001AD0EDE877
:10003000F0E000811181012B99F4EDE8F0E00281FC
:1000400013810F3020E0120759F4EDE8F0E004814D
:1000500015810F3F20E0120719F401E005BBFDCF29
:10006000089501E004BB089538C00CE80DBF00E01E
:100070000EBFCFE6D0E007D0002309F014D0D6DFC2
:1000800001D0F2CFF1CF01E0089520E006D0E9F7EA
:100090000895259102D0E9F708952D93015010405D
:1000A000202F212B089586E290E0FC010591149108
:1000B000FC013296A591B491FC01349625913491BE
:1000C000422F432B19F0F901E4DF01C0DEDF069671
:0C00D00010E08C32910748F30895FFCF38
:00000001FF
:00000001FF
