:1000000061C818951895189518951895189518950C
:1000100018953CC818951895189518951895189521
:1000200018951895189501009A040B00EF030F041A
:100030002104BF044004510468047A048C04AD0414
:10004000D0040000B3050F004405AE05A905C105A5
:1000500056055905630577058B05950581054B0503
:10006000B3056D059F050101B6065B06019A060101
:10007000820605BC0608C30608DB0608E90608DB9D
:100080000608E90610EF0608F40608F90608E9066E
:1000900099C90601D10601D706FB1200A0001E1265
:1000A0005A00B20000007ED8D80101E098960C9367
:1000B00098970CE099960C93999703E00C930BE0BA
:1000C00011960C93119702E112960C93129700E08F
:1000D00013960C93139705E014960C93149700E075
:1000E00015960C93159716960C93169717960C93D6
:1000F000179718960C93189719960C93199729E04F
:100100008D010F5F1F4F7ED50091B3001A960C939F
:100110001A970091B2001B960C93E4E04CC842D8A9
:10012000D80102E098960C9398970CE099960C935E
:10013000999703E00C930BE011960C93119702E151
:1001400012960C93129700E013960C93139706E007
:1001500014960C93149700E015960C931597169629
:100160000C93169717960C93179718960C9318974D
:1001700019960C93199729E08D010F5F1F4F42D5F7
:100180000091B3001A960C931A970091B2001B9637
:100190000C93E4E010C806D8D80103E098960C93BD
:1001A000989708E099960C93999703E00C9307E0D1
:1001B00011960C93119707E112960C93129700E891
:1001C00013960C93139700E014960C9314971596BE
:1001D0000C93159725E08D010F5F1F4F13D50091EC
:1001E000B30016960C9316970091B20017960C93D5
:1001F000E4E0E1C7D7D7D80104E098960C9398972C
:1002000008E099960C93999703E00C9307E01196F8
:100210000C93119702E012960C93129700E8139634
:100220000C93139700E014960C93149715960C9367
:10023000159725E08D010F5F1F4FE4D40091B300A7
:1002400016960C9316970091B20017960C93E4E063
:10025000B2C7A8D7D80105E098960C93989708E202
:1002600099960C93999703E00C9307E211960C93DF
:10027000119702E112960C93129702E813960C93D1
:10028000139700E014960C93149715960C931597FA
:1002900016960C93169704E017960C9317970DEF8C
:1002A00018960C9318970EE019960C93199708ED71
:1002B0001A960C931A9705EB1B960C931B9708E460
:1002C0001C960C931C970EEA1D960C931D9704E048
:1002D0001E960C931E9700E01F960C931F9709EF34
:1002E00050960C9350970AE051960C9351970CED51
:1002F00052960C93529701EB53960C9353970CE440
:1003000054960C9354970AEA55960C9355970EE021
:1003100056960C9356970AE057960C93579703EF0F
:1003200058960C93589700E059960C93599706ED00
:100330005A960C935A970BEB5B960C935B9706E4DB
:100340005C960C935C9700EA5D960C935D9705EBC9
:100350005E960C935E9701EB5F960C935F9708E4B3
:1003600090960C9390970BEB91960C9391970DE6CA
:1003700092960C93929700E093960C9393970DEFBF
:1003800094960C9394970BE195960C93959720E295
:100390008D010A5F1F4FD2D025E28D010F5F1F4FE5
:1003A00031D40091B30096960C9396970091B200C9
:1003B00097960C93E4E0FFC6F5D6D80106E0FD0160
:1003C00000A708E201A703E00C9307E2018302E122
:1003D000028302E8038308E0048300E0058320E24F
:1003E0008D01055D1F4FAAD0FD0103A5068314A54D
:1003F00004E01027178315A50DEF1027108716A509
:100400000EE01027118717A508ED1027128710A9F5
:1004100005EB1027138711A908E41027148712A9E8
:100420000EEA1027158713A904E01027168704A9E0
:10043000078715A909EF1027108B16A90AE01027C6
:10044000118B17A90CED1027128B10AD01EB1027A3
:10045000138B11AD0CE41027148B12AD0AEA102790
:10046000158B13AD0EE01027168BFC9610810AE059
:100470001027FD01178BFD96108103EF1027FD015A
:10048000108FFE960081FD01018FFF96108106ED11
:1004900010275A961C935A9711810BEB10275B96E5
:1004A0001C935B97128106E410275C961C935C9763
:1004B000138100EA10275D961C935D97148105EB6C
:1004C00010275E961C935E97158101EB10275F96AF
:1004D0001C935F97168108E4102790961C939097C1
:1004E00017810BEB102791961C93919710850DE6C1
:1004F000102792961C939297018593960C9393974D
:1005000012850DEF102794961C93949713850BE199
:100510001027FD0115A320E28D010A5F1F4F0ED0A9
:1005200025E28D010F5F1F4F6DD30091B300FD01D8
:1005300006A30091B20007A3E4E03DC640E010C06E
:1005400050E0F801E40FF51F50815295507F308143
:1005500032953F70530F50833081309530834395EF
:10056000421770F308951ED6D80107E098960C93B1
:10057000989708E299960C93999703E00C9307E2F9
:1005800011960C93119702E012960C93129702E8C1
:1005900013960C93139700E114960C93149700E0B4
:1005A00015960C93159716960C93169704E01796CC
:1005B0000C9317970DEF18960C9318970EE0199659
:1005C0000C93199708ED1A960C931A9705EB1B9646
:1005D0000C931B9708E41C960C931C970EEA1D962F
:1005E0000C931D9700E01E960C931E9707E51F962F
:1005F0000C931F970EE750960C93509707E0519677
:100600000C9351970CE652960C9352970AE5539629
:100610000C93539704E254960C93549707E5559620
:100620000C93559700E056960C93569708E0579612
:100630000C9357970AEF58960C9358970CE15996DC
:100640000C93599700EB5A960C935A970AE65B96CF
:100650000C935B9700E95C960C935C970CE55D96B8
:100660000C935D9700E05E960C935E9701E05F96B9
:100670000C935F970FE390960C93909703E09196FD
:100680000C93919706E392960C9392970DE29396B2
:100690000C93939702E194960C9394970BE29596A2
:1006A0000C93959725E28D010F5F1F4FABD2009100
:1006B000B30096960C9396970091B20097960C9380
:1006C000E4E079C56FD5D80108E098960C93989727
:1006D00099960C93999703E00C9307E011960C936D
:1006E000119707E112960C93129701E813960C9359
:1006F000139700E014960C93149715960C93159786
:1007000025E08D010F5F1F4F7DD20091B30016963B
:100710000C9316970091B20017960C93E4E04BC52A
:1007200041D5D80109E098960C93989708E09996DE
:100730000C93999703E00C9307E011960C93119793
:1007400002E012960C93129700E013960C93139705
:1007500005E114960C93149700E015960C931597E9
:1007600025E08D010F5F1F4F4DD20091B30016960B
:100770000C9316970091B20017960C93E4E01BC5FA
:1007800020E0F80120A708950BD52297D801290170
:10079000E0EAF0E0028113814016510641F0008149
:1007A00011810F5F1F4F008311834282538200919A
:1007B000A400013079F40091A600002359F40FEF52
:1007C0000093A4000093A60000E0C09901E000950A
:1007D000017008BB0091A400E6E2F0E09AC400E0DA
:1007E000E0EAF0E000830183FD0100A50F3F29F45A
:1007F00001E00093A40003E0E2C00091A50010A571
:10080000011719F000A5002329F401E00093A400CA
:1008100000E0D5C002E00093A40001E0D0C05A92ED
:100820004A9272E064E250E041E431E121E008EAFA
:1008300010E020D2088319830881003259F703E0C1
:10084000EACF5A924A9270E060E050E044E631E22A
:1008500024E08D01065D1F4F0DD2088319830881A6
:10086000083439F4E0EAF0E00281138140165106C1
:1008700089F662E055E043E09D018E01A3D0CDCF23
:100880005A924A9270E060E050E044E631E1FD01A6
:1008900021A58D01EFD10883198365E056E045E07D
:1008A000EBCFCD01825B9F4F5A924A9270E060E09D
:1008B00050E044E631E2FC0120818D01065D1F4FCE
:1008C000D9D10883198365E0FC01518146E0D4CF7A
:1008D00001E00C935A924A9270E060E050E044E6E6
:1008E00031E121E08D01C6D10883198367E059E029
:1008F00047E0C2CF02E00C935A924A9270E060E067
:1009000050E044E631E121E08D01B4D10883198340
:1009100068E059E048E0B0CF00E0E0EAF0E00083B2
:100920000183FD0100A50093A50001E00093A40050
:1009300002E045C001E01091A700112351F41FEF20
:100940001093A7001093A40018B31095147018BB4F
:1009500036C01AE01093A40032C00881023069F456
:100960005A924A9270E060E050E044E631E221E0C1
:100970009A968D017FD10AE04ECF04E04CCF5A9277
:100980004A9270E060E050E044E631E121E008EA9C
:1009900010E070D1088319836AE055E044E06CCF21
:1009A00000E010E0E0EAF0E00083018301E0009362
:1009B000A40003E01093A5001FEFFD0110A72296ED
:1009C000E6E0F7C3EFD3952F862FE0EAF0E0A081B1
:1009D000B181949720F00BE00093A4004BC0F80184
:1009E0005181552319F44093A40044C04081403301
:1009F00019F00081083511F404E0EECFD9019A9680
:100A0000FD0104A110E0F901E00FF11F01A5009321
:100A1000B500FD0104A1200F311FF90100A50093CD
:100A2000B400FD0114A112509D0102E016D11091F5
:100A3000A400153031F0143021F0183011F01730C7
:100A400019F49093A40016C0133021F4FD01118114
:100A50001131B9F3FD011081153010F0002389F731
:100A60001081153028F41181112311F4002349F766
:100A70008093A400E4E09FC395D3C801D9010091FD
:100A8000A900E2E4F0E045C320E011E00BE083D0F0
:100A90008C0176DE7CC08C0143DE47E050E027E02D
:100AA0008C01A8D020E014E001E070C08C0190D04F
:100AB0006EC08C01F8DA47E050E024E08C019AD057
:100AC00020E016E0F1CF8C012ADB47E050E024E083
:100AD0008C0190D020E01DE0E7CF8C015CDB47E08B
:100AE00050E024E08C0186D020E017E0DDCF8C01BF
:100AF000B0DB47E050E024E08C017CD020E01AE03D
:100B0000D3CF8C0177DB47E050E023E28C0172D039
:100B100020E018E0C9CF8C014FDC47E050E024E032
:100B20008C0168D020E019E0BFCF8C011CDD47E0CC
:100B300050E024E08C015ED020E01EE0B5CF8C01B7
:100B4000C1DD47E050E024E08C0154D020E012E009
:100B5000ABCF8C0115DE21E010E017C09D018C01A8
:100B600013DE20D014C001E0401619F420E01BE091
:100B70000DC003E0401620E011E009F488CF00E04A
:100B800086CF8C01FDDD22E011E000E004D0009171
:100B9000AB00E4E010C30093A9001093AA002093D7
:100BA000AB00089510E01093AB00013081F00230EB
:100BB00011F0002319F40091AA0003C0033021F4BE
:100BC00003E00093A900089501E00093A9000895AF
:100BD00020E02093AB00F80126A5253511F405E0AF
:100BE00004C005A5053521F407E00093A900089588
:100BF00002E0FBCF025B1F4FF80120834183089581
:100C000000E00895722F0024112440E001C04395B4
:100C10004717E0F461E00FC020E0322F212D220FB2
:100C200020E0221F000C111C321721F025E030E8D3
:100C300002261326660F662351F350E0F801E40FF5
:100C4000F51F2081262341F321E0E7CF002D0093FB
:100C5000B300012C0092B200089520E010E002C021
:100C6000239513951017E0F3201711F000E0089575
:100C700001E0089593D2C801B22FA32F742E452E00
:100C8000562E672E08851985272D220F22B9ECEAEA
:100C9000F0E0208131810217130729F02581239587
:100CA000258300831183B23008F444240091AE0000
:100CB000E6E6F0E02EC200E00093B1002B2F8C019D
:100CC000A1DFA13111F0A13269F412E000E0A4D05B
:100CD00000E00093B00050B801B1062901B904EA60
:100CE00006BF94C0A13311F0A13441F412E000E03A
:100CF00093D000E00093B00004E4F2CF11E001E0F3
:100D00008BD084C000E00093B1002B2F8C017ADFE0
:100D10001B2F9C0102E0A1DF002339F011E001E06C
:100D20007BD0A13229F404E9DBCF12E000E074D0DB
:100D300004E8D6CF06B7102F17FD12C00091B100FE
:100D4000043058F000E00093B100A13111F0A1325D
:100D500011F412EFD5CF11E0D3CF12E000E0D0CFE5
:100D600000E00093B10011B1187FCACF00E00093FA
:100D7000B1000A2FE0D04AC000E00093B100172D67
:100D80000A2F54D0EACF00E00093B1000093B000E6
:100D9000F6CF06B7102F17FD02C011EFDFCF13EF0C
:100DA000DDCF11EF00E038D00FEF03B9C1CF12E073
:100DB00000E032D094CF00E00093B100ECEAF0E024
:100DC000048103950483442D3A2F2B2F8C013AD0B4
:100DD0001DC000E00093B10004EA06BFBECF00E0F2
:100DE0000093B10004ECF9CF00E00093B10012E0F1
:100DF000E0CF00E00093B100ECEAF0E0048103955D
:100E00000483442D3A2F2B2F8C014ED0ECEAF0E0D6
:100E100002811381EAE0CBC1002311F001E001C09F
:100E200000E00093AF001093AE000895013111F47B
:100E3000110F04C0013219F4110F139513B904E80E
:100E400006BF0895B1D1F8016091B000062E1124BB
:100E5000261720F0E60FF11D319708C0C001019759
:100E6000022F801B9040FC01EE54FF4F008103B91C
:100E7000261740F4822F90E00296861791055CF0C9
:100E8000442349F0313129F404E806BF12E000E0C0
:100E900008C004ECFACF3131B9F704E906BF11E01C
:100EA00001E0BADFE2E089C17CD1D801822F932F23
:100EB000442E00E02091B000821758F003B1A0DE6C
:100EC00013B12091B00030E0A20FB31F11971C9313
:100ED0000BC013B130E021503040482F241B30406C
:100EE000F901EC54FF4F1083013031F412E000E0BF
:100EF00093DF04E806BF1DC00091B00010E0E82FAA
:100F0000F0E032960E171F0714F013E010C0081718
:100F100058F0442049F4913229F404E906BF11E065
:100F200001E006C004E8FACF04EC06BF12E000E0DE
:100F300073DFE5E03FC1013129F412E000E06CDF2E
:100F400004EA06C0013231F412E000E065DF04E893
:100F500006BF08950133C1F3013419F418EB00E022
:100F60005BDF08955FD0A895E6EBF0E0208131814A
:100F70000CEB10E009DC0091B9000023A9F701E0B7
:100F80000093B90072D0E6EBF0E000811181012BF3
:100F900029F40091B80006D00093B80002E0009355
:100FA000B900E1CF005029F00A9509F10A9541F105
:100FB00031C0E6EBF0E0208131810CEB10E05CDD2C
:100FC0000093BB0001E010E0E6EBF0E0008311834A
:100FD00002BB0091BB00002311F400E00895013032
:100FE00011F401E008950230C1F702E0089500E035
:100FF0002EE932E0E6EBF0E02083318332BB089546
:1010000000E02EE932E0E6EBF0E02083318311E0EE
:1010100012BB089500E021E0E6EBF0E020830183BD
:1010200022BB0895789401E009BF04E003BF00E00B
:1010300002BF0FE101BD01BD03E001BB01D0089576
:1010400000E00093B8000093B9000093BA0001E0FB
:101050000093BB0002E310E0E6EBF0E000831183B5
:101060001093BC001093E4000895E6EBF0E00081DB
:101070001181012B39F00081118101501040008352
:101080001183089501E00093BA0008950A925A93DB
:101090004A931A930A931FB70091B900023039F0AE
:1010A000013029F40091B80040E050E024D000E085
:1010B0000093B9001FBF0991199149915991099065
:1010C0001895ACC00FE90DBF00E00EBFC0E8D0E03E
:1010D0007BD0002309F088D045DF11D0F2CFE19911
:1010E000FECF08954F5F5F4F4EBB5FBBF894E29A0F
:1010F000E19A0FBE08950FB6F2DF0DBBF5CFE1CF39
:101100007591659155914591159011FA25903590FD
:101110000895F9DF041B10E003C0F4DF041B150B76
:1011200020E030E005C0ECDF041B150B260B370B6D
:10113000B8F010FC17C045910590E00FF11F04179F
:10114000100540E02407340758F436F404910024D5
:10115000F101E01BF0090994E00FF11F2590359093
:10116000F101099411F4D6F7F1CF31960EF03196D2
:1011700050E060E070E045914B3F48F089F34F3F0D
:1011800029F04E3F11F07591659155914591041BE1
:10119000150B260B370B39F318F3E7CF7A926A92C7
:1011A0005A924A92BA93AA939A938A9308957F8007
:1011B0006E805D804C80BB81AA8199818881F0E03E
:1011C000EC0FFD1FEF01089501E0089520E006D027
:1011D000E9F70895259102D0E9F708952D9301507C
:1011E0001040202F212B08958AE990E0FC01059101
:1011F0001491FC013296A591B491FC01349625918D
:101200003491422F432B19F0F901E4DF01C0DEDFF6
:10121000069610E0863A910748F30895FFCF000044
:1012200000000100000004000B00000001000100AC
:00000001FF
:00000001FF
